:020000040000fa
:080000000002040000000000f2
:020000040000fa
:040008001c030000d5
:020000040000fa
:04000c001c030000d1
:020000040000fa
:040010001c030000cd
:020000040000fa
:040014001c030000c9
:020000040000fa
:040018001c030000c5
:020000040000fa
:04001c001c030000c1
:020000040000fa
:040020001c030000bd
:020000040000fa
:040024001c030000b9
:020000040000fa
:040028001c030000b5
:020000040000fa
:04002c001c030000b1
:020000040000fa
:040030001c030000ad
:020000040000fa
:04003400ec020000da
:020000040000fa
:040038001c030000a5
:020000040000fa
:04003c001c030000a1
:020000040000fa
:040040001c0300009d
:020000040000fa
:040044001c03000099
:020000040000fa
:040048001c03000095
:020000040000fa
:04004c001c03000091
:020000040000fa
:040050001c0300008d
:020000040000fa
:040054001c03000089
:020000040000fa
:040058001c03000085
:020000040000fa
:04005c001c03000081
:020000040000fa
:040060001c0300007d
:020000040000fa
:040064001c03000079
:020000040000fa
:040068001c03000075
:020000040000fa
:04006c001c03000071
:020000040000fa
:040070001c0300006d
:020000040000fa
:040074001c03000069
:020000040000fa
:040078001c03000065
:020000040000fa
:04007c001c03000061
:020000040000fa
:040080001c0300005d
:020000040000fa
:040084001c03000059
:020000040000fa
:040088001c03000055
:020000040000fa
:04008c001c03000051
:020000040000fa
:040090001c0300004d
:020000040000fa
:040094001c03000049
:020000040000fa
:040098001c03000045
:020000040000fa
:04009c001c03000041
:020000040000fa
:0400a0001c0300003d
:020000040000fa
:0400a4001c03000039
:020000040000fa
:0400a8001c03000035
:020000040000fa
:0400ac001c03000031
:020000040000fa
:0400b0001c0300002d
:020000040000fa
:0400b4001c03000029
:020000040000fa
:0400b8001c03000025
:020000040000fa
:0400bc001c03000021
:020000040000fa
:0400c0001c0300001d
:020000040000fa
:0400c4001c03000019
:020000040000fa
:0400c8001c03000015
:020000040000fa
:0400cc001c03000011
:020000040000fa
:0400d0001c0300000d
:020000040000fa
:0400d4001c03000009
:020000040000fa
:0400d8001c03000005
:020000040000fa
:0400dc001c03000001
:020000040000fa
:0400e0001c030000fd
:020000040000fa
:0400e4001c030000f9
:020000040000fa
:0400e8001c030000f5
:020000040000fa
:0400ec001c030000f1
:020000040000fa
:0400f0001c030000ed
:020000040000fa
:0400f4001c030000e9
:020000040000fa
:0400f8001c030000e5
:020000040000fa
:0400fc001c030000e1
:020000040000fa
:040100001c030000dc
:020000040000fa
:040104001c030000d8
:020000040000fa
:040108001c030000d4
:020000040000fa
:04010c001c030000d0
:020000040000fa
:040110001c030000cc
:020000040000fa
:040114001c030000c8
:020000040000fa
:040118001c030000c4
:020000040000fa
:04011c001c030000c0
:020000040000fa
:040120001c030000bc
:020000040000fa
:040124001c030000b8
:020000040000fa
:040128001c030000b4
:020000040000fa
:04012c001c030000b0
:020000040000fa
:040130001c030000ac
:020000040000fa
:040134001c030000a8
:020000040000fa
:040208001c030000d3
:020000040000fa
:04020c001c030000cf
:020000040000fa
:040210001c030000cb
:020000040000fa
:040214001c030000c7
:020000040000fa
:040218001c030000c3
:020000040000fa
:04021c001c030000bf
:020000040000fa
:040220001c030000bb
:020000040000fa
:040224001c030000b7
:020000040000fa
:040228001c030000b3
:020000040000fa
:04022c001c030000af
:020000040000fa
:040230001c030000ab
:020000040000fa
:04023400ec020000d8
:020000040000fa
:040238001c030000a3
:020000040000fa
:04023c001c0300009f
:020000040000fa
:040240001c0300009b
:020000040000fa
:040244001c03000097
:020000040000fa
:040248001c03000093
:020000040000fa
:04024c001c0300008f
:020000040000fa
:040250001c0300008b
:020000040000fa
:040254001c03000087
:020000040000fa
:040258001c03000083
:020000040000fa
:04025c001c0300007f
:020000040000fa
:040260001c0300007b
:020000040000fa
:040264001c03000077
:020000040000fa
:040268001c03000073
:020000040000fa
:04026c001c0300006f
:020000040000fa
:040270001c0300006b
:020000040000fa
:040274001c03000067
:020000040000fa
:040278001c03000063
:020000040000fa
:04027c001c0300005f
:020000040000fa
:040280001c0300005b
:020000040000fa
:040284001c03000057
:020000040000fa
:040288001c03000053
:020000040000fa
:04028c001c0300004f
:020000040000fa
:040290001c0300004b
:020000040000fa
:040294001c03000047
:020000040000fa
:040298001c03000043
:020000040000fa
:04029c001c0300003f
:020000040000fa
:0402a0001c0300003b
:020000040000fa
:0402a4001c03000037
:020000040000fa
:0402a8001c03000033
:020000040000fa
:0402ac001c0300002f
:020000040000fa
:0402b0001c0300002b
:020000040000fa
:0402b4001c03000027
:020000040000fa
:0402b8001c03000023
:020000040000fa
:0402bc001c0300001f
:020000040000fa
:0402c0001c0300001b
:020000040000fa
:0402c4001c03000017
:020000040000fa
:0402c8001c03000013
:020000040000fa
:0402cc001c0300000f
:020000040000fa
:0402d0001c0300000b
:020000040000fa
:0402d4001c03000007
:020000040000fa
:0402d8001c03000003
:020000040000fa
:0402dc001c030000ff
:020000040000fa
:0402e0001c030000fb
:020000040000fa
:0402e4001c030000f7
:020000040000fa
:0402e8001c030000f3
:020000040000fa
:0402ec001c030000ef
:020000040000fa
:0402f0001c030000eb
:020000040000fa
:0402f4001c030000e7
:020000040000fa
:0402f8001c030000e3
:020000040000fa
:0402fc001c030000df
:020000040000fa
:040300001c030000da
:020000040000fa
:040304001c030000d6
:020000040000fa
:040308001c030000d2
:020000040000fa
:04030c001c030000ce
:020000040000fa
:040310001c030000ca
:020000040000fa
:040314001c030000c6
:020000040000fa
:040318001c030000c2
:020000040000fa
:04031c001c030000be
:020000040000fa
:040320001c030000ba
:020000040000fa
:040324001c030000b6
:020000040000fa
:040328001c030000b2
:020000040000fa
:04032c001c030000ae
:020000040000fa
:040330001c030000aa
:020000040000fa
:040334001c030000a6
:020000040000fa
:10040000cf0022000e7f22000e01880000000000b5
:10041000000020000000e000020032000001200087
:100420002002880014000700850007000000e0009b
:1004300003003a00e07326000100200002003700ac
:100440000000200001002000810f70000100320038
:1004500014000700000020000000e000020032004d
:1004600000000200000000008a6702000000000097
:100470000040da000000fe004440a900601a20009d
:100480000000e0000300320000002000a00188000e
:100490004440a800000006008a1f78008b1f7800e7
:1004a0000000060091018800800478000000eb0045
:1004b0001a003700e284440032a0b4009905ba0063
:1004c000e284440032a0b4009906ba00e2844400f9
:1004d00032a0b4000006eb00476fde00fd07b2005b
:1004e000636ce10003003a00ebff07000000eb0043
:1004f0000a003700606ce10004003a00005deb0088
:100500008b05e900fdff3e00040037006168e10053
:10051000010032000086eb000b00070019c7ba008b
:100520001905ba000e04e00003003a000a00e000da
:10053000e0ff3a0000000600fe07b2009e018800be
:100540008a047800f5ff3700395dba008b05e900b1
:100550000c003200295dba008b05e900080032006a
:100560000c00e00003003a00e284440032a0b40032
:10057000f5ff370019ddba008b05e900faff3a00f4
:100580008904e800e184440032a0b40000000600c1
:10059000fc27040000000000b04f04000000000031
:1005a000e4500400000000003c5104000000000082
:1005b000a250040000000000c05104000000000030
:1005c000c8520400000000007e5304000000000038
:1005d0001a540400000000003600f800809fbe009e
:1005e000829fbe00849fbe00869fbe003400f8003c
:1005f00000002000a00188000000fa008460a9002b
:10060000a60e07000000e00003003200ee660200c4
:1006100000000000000000000080fa003400f90033
:100620004f03be004f02be004f01be004f00be0090
:100630003600f900004006000040da000000fe002d
:10064000000005000001be00220007000470a700a2
:1006500003f0a1006509b100160032000d0035005d
:100660006828e10006003500f0ff2f00f1ff2700a9
:100670000300e00013003b0001002800000005001b
:1006800000004000818048008502e900fcff3a003c
:1006900008003700f88f420002003c008000eb00a9
:1006a000000005008100d1000080d3008502e80031
:1006b000fcff3a000300e00002003b006000100075
:1006c000e0801800000006004f89de0082017800fb
:1006d00027013700c70ade00f107b200f50fb200ac
:1006e00008003200e1cf4200020032000170a00099
:1006f00024000500810f700001003200040805008d
:1007000044000500810f700002003a00140005004b
:100710008502e9000000400081c04800fcff3b006a
:100720000170a000240005006022b800060220002d
:100730000000d0008180d2000482d2008582d200e5
:100740000000a0000202520083825a000300310020
:100750000202420083824a000000a1000603e90071
:10076000f3ff3a000000060003836800070028003a
:1007700007036300470ade000480a100c71ade00f9
:100780000580a100f70f20000720e10042003200a1
:100790000728e10040003200889fbe008a9fbe000b
:1007a0008c1f7800f107b200f307b2000400e000ec
:1007b000640032000170a0000500e0006800320013
:1007c0000370a00085054200eb07b1000204b800e9
:1007d0000302b8008484440060854a00020ab8001d
:1007e000848444000a854a00030ab80004054500d1
:1007f000040033000804d0008984d2000a85d200a6
:100800008b05e9006158e1003d0035000210200031
:10081000090161000308200089816100f7072000b9
:100820008783640008867300c84cde00c853dd006f
:10083000878474004855de000300e00006003200a3
:1008400082037600040032008904e80060054d0050
:100850000a88a3000c003a00f70f20000758e100b7
:1008600044003d000a70a100c75ddd000a857500e7
:100870008a007300090078004f0678004f05be001b
:100880004f04be00000006000a05d1008984d30091
:100890008b05e800f0ff3700881f78000604780019
:1008a00090000700070278000001fd008101fd00b3
:1008b0008c00070087027800850372000778a30088
:1008c000050032000001fd008101fd009f000700ce
:1008d0004f04780000000600850372000748a3005b
:1008e00003003200f0ff2f00f1ff2700f8ff370070
:1008f0000000200001f8270088807000f4ff370016
:10090000880178004848dd00808171004848de0099
:10091000c850dd0001007000c850de0006047800f9
:100920000b0178001600070088807000d2ff3700a6
:100930000500e00005003200170020003a00070023
:100940009dff370081037000f9ff3a0086007800b0
:100950004f0678004f05be004f04be0000000500a2
:1009600083037100f9ff3200270020002e000700ea
:1009700094ff370001f8270086807000f4ff3700ed
:100980000100e00026003200610111007810e10052
:1009900023003c006022b8007010e1000400350024
:1009a00080027800010078008000eb0070015100a7
:1009b0000200e0000900340070031100062add0087
:1009c000822ade008603dd00878272000200de00dc
:1009d000860bdd00070070008208de008481710054
:1009e000f4ff270004826200848171000400280063
:1009f000848262006102600005f0a600000006002b
:100a000004827100070032000000e800e080480026
:100a1000000006000002be006000b800efff3700d3
:100a20006000b80000000600889fbe000004eb00d4
:100a30006138e10016003a000100e00008003a00c9
:100a4000c800de004800dd00880020000100e00052
:100a500003003a00c800de004800dd0068044400de
:100a60008184cf00e9845400060034008908dd0049
:100a7000f08314008703de00878070000900dd002a
:100a800009044400610214004f04be000000060087
:100a90000300e00008003a00c811de004811dd0044
:100aa000880020000300e00003003a00c811de00c7
:100ab0004811dd00680444008384cf00e9845400b9
:100ac000060034008919dd00f08314008713de006e
:100ad000878171000911dd0009044400e10214005e
:100ae000e9ff37002700200001f0a70017002000d1
:100af000470bde00f60fb200040032000643e800a8
:100b00000a0032004702b30000000600010378002b
:100b1000f607b2000603700002003a000703b300b4
:100b2000000006008702b300000006000103780001
:100b3000f607b20006037000020032000770a00042
:100b4000000006000760a000000006000478a30073
:100b5000040032000578a300030032000168a300fe
:100b600001003a000200be000160a0000000060083
:100b7000881f7800030478000300e00007003d00b0
:100b800060001000e080180060011900e081190089
:100b900002003b0001f02d000300370004000700b5
:100ba00008f0a70001f0a0004f0478000000060044
:100bb000889fbe008a9fbe00008270000402710000
:100bc00004827100260032000004be000200be0054
:100bd0006011b8006b092000950220000182cf004f
:100be0000a0039000541b1000082cf00070039003a
:100bf0000541b1000982cf00040039000541b10070
:100c00000882cf00010039000541b10005425200c1
:100c1000120032000a003b00828171006101640011
:100c20008100d1000080d3008984d3000884d300e0
:100c30008b05e8000442e800f7ff3a0007003700a0
:100c40000804440089844c0000004800818048006a
:100c50008b05e9000442e900f9ff3a0003000700b0
:100c60004f05be004f04be000000060081002000ba
:100c7000618055000b003d000b00200061fe2f003d
:100c80000100e1001d0034008281710061016400f7
:100c90008904d1000884d3000000e800faff3a007c
:100ca0007100200061006400030070000200600019
:100cb0000900320061044400e0844c000988a5006a
:100cc000050032008b05e8006808e10002003a00e8
:100cd0008904d1000884d300f20f20000258e100fb
:100ce00005003d00c75ddd00f907b2008980750091
:100cf00008007800000006000bf827008b00780041
:100d0000000005008001780002003700b15978002a
:100d10000201e9000200e000fcff3a0000000600ca
:100d2000889fbe008a9fbe00800478000200e00019
:100d30005a00320001407800814c780082814400e2
:100d4000f1f99f00e20f51005400360091449800e1
:100d5000a1449800e1f99f00d1f99f00e60f5100ee
:100d60004e003600b1449800c1f99f00e80f5100d1
:100d70004a0036000905ea00630565000a8444005c
:100d80000a055100c1ff2f00010565000080fb002e
:100d90008000eb00121020001310200076050700e1
:100da000008cbe000a01440060b99f0071b99f0029
:100db000e80f5500390036002004980031049800ef
:100dc000400498005104980020b99f0031b99f0059
:100dd00040b99f0051b99f00f80f55002f00360011
:100de0006004980071049800000c9800110c9800a1
:100df000200c9800310c9800400c9800510c980081
:100e000020b19f0031b19f0040b19f0051b19f00c0
:100e100060b19f0071b19f0000b99f0011b99f00a0
:100e20006401640078014100020444000205550099
:100e30006011b8000203be000002be000403be0041
:100e40006022b8000000720081807200020173000d
:100e5000838173000f00370008027800009abe00fb
:100e6000029abe00009abe000292be00000c9800da
:100e7000110c9800220c9800330c9800400c98003c
:100e8000510c9800620c9800730c98000a02b10093
:100e90000802b000ff0f5500efff3e000900780088
:100ea0004f05be004f04be00000006000000fa001f
:100eb000cfb8970068815700df0107000080fa0073
:100ec00000000600040007005c0007009000070017
:100ed0000b01070033013700ec874700889fbe00f5
:100ee0008a9fbe008c9fbe008e1f7800000678008f
:100ef00001047800180790002805900098067800f3
:100f0000cdb79f00b80590003202be002203be009c
:100f10000400be000601be004f18de006011b800dc
:100f20008000eb00d0b79f00e1b79f00f2b79f00b1
:100f300083bf9f00800478000900e00006003200b3
:100f40006000b8006011b8000402500085825800ab
:100f500006035900878359000e00e00002003500a7
:100f60000d10a100cdb79f000900e00005003a0078
:100f70004fb097000028a30002003a000038a300f9
:100f8000020032008a00e900010037008a00780080
:100f9000f8815700a20020000800780086000700b2
:100fa0000900e00003003a00cfb097000128a30039
:100fb000080032000000e90000814500b1c2b30022
:100fc0000900e00001003200d1c2b30001497800fd
:100fd000050037000138a300030032000000e900db
:100fe00001c2b30081757800480190000201e90058
:100ff00000015100808045004fb297008a017800bf
:101000000c007800a40107009c0090000188a30058
:101010000400320098009000810f500001003d0054
:10102000010078004f0778004f06be004f05be0054
:101030004f04be00cf00b100000006000200fa001d
:10104000889fbe008a9fbe000005780001047800da
:101050000200780018019000a80590009800780020
:10106000b1bf9f00b80490000200e000020035000c
:101070000110a100b1bf9f00ea815700820020004b
:101080008b0078003002be002003be00080078000c
:10109000490007003fb99700f000610003003200eb
:1010a0000000e90001c3b300817478003fb99700e4
:1010b000e8006100030032000000e90001c2b30053
:1010c00081747800480190000201e900000151009c
:1010d000808044003fba97008b0178000a007800b6
:1010e0006d0107009a0090000188a30004003200ff
:1010f00098009000810f500001003d000100780031
:101100004f05be004f04be000080fa00000006003c
:10111000ea874700889fbe008a9fbe008e1f780026
:1011200000047800030078007287570084e22600ec
:1011300055c72600049fbe00c3962200030f780007
:101140006c875700004feb0011059000a104900040
:10115000910578000200e0000200320002077800ea
:1011600001003700728757000000e00002003a00db
:101170000e0078001b0307000a00e00003003500a2
:101180008a0f5000010036000a0078000b02780038
:1011900089017800000178008e007800080078004e
:1011a0003d0107004f0778004f05be004f04be0009
:1011b000af00b10000000600f4874700889fbe0022
:1011c0008a9fbe008c9fbe008e1f78000605be0061
:1011d0000404be0081bf9f0082b79f00f3b79f0049
:1011e000b0009000e1b79f001301780092b79f0014
:1011f00090069000400690000c06e9000d00e0000b
:1012000001003d001d002000efb197000c8041005f
:101210000048eb001e0020001f0037000c06e9000c
:101220000fb09700cf80de006109b900a0b79f0022
:10123000b1b79f00c2b79f00d3b79f000203be00a3
:101240000002be000800be000a01be00f90407004b
:1012500000077800efb097000c80400003c3b30094
:10126000034847008d06e9000fb897000000e90029
:1012700080bf9f002fb29700bfb297004fb3970077
:10128000dfb397000800be000a01be00e2040700b9
:101290000205be000004be000c00e0000d0032009c
:1012a000e00f5400e08f5c00e00f5d00e08f5d0018
:1012b000daff3a000d00e000d8ff3c008fb897003d
:1012c0000100e000030034001fb197000218a300e2
:1012d000d2ff3a000e00e00002003a00ffb1970092
:1012e0001340a1000c0078004f0778004f06be00a5
:1012f0004f05be004f04be004f01b10000000600c4
:101300000200fa00889fbe008a9fbe008004780019
:101310000104780002007800180190002805900070
:1013200098007800b1bf9f00b80590000200e0006f
:10133000020035000110a100b1bf9f00ea815700f3
:10134000a20020008a0078003002be002003be0008
:101350000800780098ff0700480190000201e900aa
:1013600000015100808045003fba97008a01780053
:1013700009007800c8000700990090000188a300c8
:101380000400320098009000810f500001003d00e1
:10139000010078004f05be004f04be000080fa0037
:1013a00000000600fa874700889fbe008a9fbe00a3
:1013b0008c9fbe008e1f78008004780001047800a6
:1013c0008205780018019000280590001807780021
:1013d000b80090000200e000020035000e10a100ed
:1013e000010037001200200070006700e0b79f0086
:1013f000090032003b02be002b03be00e00f52008a
:10140000e08f5a00e00f5b00e08f5b0002003200cb
:101410008a86e900010037008a067800e802670042
:10142000f5b79f00010032008d06e9003b02be00c7
:101430002b03be00e4af9f00f5af9f0086b79f006f
:1014400097b79f00480690000c06e9000c8040000a
:101450000048eb00efb297007fb297008903780055
:1014600081047800d8af9f00020478008bbf9f00f2
:101470008a057800034578002a0037000c06e90049
:101480006fab97006f006300e90f500002003c0053
:101490000003b000010037007005b0000a03fb0034
:1014a0001604b100f90f53000c003e000003780051
:1014b0000650a0001606b100f90f530007003e00c9
:1014c000b4b79f00a5b79f00c7b79f00d20207001f
:1014d000cfb39700afb297003fb2970080747e0001
:1014e0000804e9008d06e9006fa89700ffa897009f
:1014f0000fb197009fb19700460020008301d100f3
:101500000281d3008180d3000080d3000603e9006c
:10151000faff3a00e0af9f00f1af9f0082b79f0053
:1015200093b79f00e10f56000f0036006fa8970099
:10153000ffa897000fb197009fb19700e00f5000f0
:10154000e08f5800e00f5900e08f5900cbff3a00c0
:101550000800e000c9ff3c000d00e000020034007c
:101560000e18a300c5ff3a0089007800f4b79f0069
:10157000870478005fac97008a4178000b057800fb
:101580008fbd97000500e000100032003b02be0056
:101590002b03be00e4af9f00f5af9f0086b79f000e
:1015a00097b79f00e00f5200e08f5a00e00f5b00fa
:1015b000e08f5b00050032000c06e90083707e00be
:1015c0000c06e90000c3b30080707e00ffb29700f4
:1015d0000500e000030032000c06e90000c2b30081
:1015e00080707e00480190000201e9000c0151006a
:1015f0008c8040000e0278008a0178000900780093
:1016000025000700990090000188a3000400320023
:1016100098009000810f500001003d00010078000b
:101620004f0778004f06be004f05be004f04be00b6
:10163000af01b100000006008201780001017800ce
:10164000f1ff2700ff013700889fbe008a1f780046
:10165000800478004900900002047800800f540054
:101660000100360000047800080178006a85440013
:101670001a007800a3fd07001a004400000d78004e
:10168000e8844400990c14000048eb004f057800f2
:101690004f04be0000000600f2874700889fbe008e
:1016a0008a9fbe008c9fbe008e1f78008004780049
:1016b0000105780002047800830578006107620064
:1016c00002003a008b0f540008003900080178002e
:1016d0008a00780009007800dbff07008b0f5400b8
:1016e00002003900880578001e0037000886550082
:1016f0000c017800f00f56000100360002012000b6
:10170000010220007e80570085fd07008c067800ce
:101710000500370002012000fe8057000900780014
:10172000c9ff0700f0865600ef8f5600f9ff3e0014
:101730004461de0000ff2f000091b9000201460065
:10174000fe80570009007800bfff07000e00e00090
:1017500004003a00080178008a0078000900780047
:10176000b9ff07000b0078004f0778004f06be0056
:101770004f05be004f04be002f01b100000006005f
:1017800000000500000005000000050000017800d1
:101790000040eb008080fb008180400043ff21007f
:1017a00063c278000404e00003003a0050ff210007
:1017b00060c078000000060092017800934f52004c
:1017c00004003a0050ff210060c078000309e800df
:1017d000010037000040e800ea4f5000edff3600fe
:1017e00000000600f6874700889fbe008a9fbe0063
:1017f0008c9fbe008e1f7800800478000104780062
:1018000083057800040678000000eb00c0b79f0055
:101810008080eb00d1b79f00e0b79f00f2b79f0038
:101820000008200080bf9f00980078000100780029
:101830000005eb00010037000a05e80030417800a0
:101840000204e0000300320053c2b300834f510092
:10185000f9ff3a000a00e000040032000a017800b3
:101860000900780078ff0700180c45001807780079
:1018700050c2b3009e4f100033013a000e07e8003b
:101880000e0c780010003700cfb097000100a000c8
:101890000b003700cfb097000110a0000800370000
:1018a000cfb097000120a00005003700cfb097000f
:1018b0000130a00002003700cfb097000140a00027
:1018c000c1b79f00000ce800180078009040780035
:1018d000b2c2b30082cf5000f1ff320007003c00db
:1018e00002c2b30082cf5000f0ff320032c2b30018
:1018f00082cf500007003a00efff3700d2c2b3009a
:1019000082cf5000e0ff320002c3b30082cf50000c
:10191000e0ff3200a2c2b30082cf50000d003a00b7
:10192000000ce8001c80e900000e78001000780030
:10193000e0b79f000000e0000f003d00cfb097002f
:101940000100a200c1b79f000000ea00e0b79f00bd
:101950000900370083010700e0b79f00010037004e
:10196000000ce800180078009000fb000103b100b3
:10197000e98f5000faff36004fb097000008a3002f
:10198000020032000010a100c0b79f0018007800cc
:10199000e1c2b30090cf100016003a008000eb00c7
:1019a000d1b79f000000e800000c7800a1c2b3008e
:1019b00090cf100006003a00000ce8001c80e900ff
:1019c000000e780010007800d0b79f0009003700a3
:1019d00064010700d0b79f0001003700000ce80049
:1019e000180078009000fb000103b100e98f50005f
:1019f000faff36000800780064ff07008046780090
:101a0000180078001000fb007c0107009106200000
:101a1000810f50003800320012003c0041062000c7
:101a2000810f5000340032000a003c0011062000f3
:101a3000810f50002000320031062000810f50003d
:101a40009a00320051022000810f5000ae003a008f
:101a5000a700370071062000810f5000aa003c004b
:101a60008200370001072000810f50005c00320027
:101a700007003c00e1062000810f50007400320096
:101a8000f1062000810f50009f003a003900370016
:101a900051072000810f50002700320081072000ed
:101aa000810f50004200320031072000810f5000aa
:101ab00095003a00850037008d80fb000c0178000e
:101ac00000fe2f000f0040005a0107000000e00058
:101ad0009c00320018007800000ce800904178006b
:101ae00002fe2f000f014100f88057000900780026
:101af00024ff07000e0037008d80fb008c0178006a
:101b00001200200000fe2f000f00400068010700b7
:101b10000000e0008b003200180ce80002fe2f00ed
:101b20000f014100f880570009007800eafc070027
:101b300000054500840037008d80fb008c01780093
:101b40000001eb0000fe2f000f00400058010700cd
:101b50000000e0007b003200180ce80002fe2f00bd
:101b60000f014100f880570009007800e4fd0700ec
:101b7000efff37008d80fb008c0178000001eb0047
:101b800000fe2f000f004000490107000000e000a8
:101b90006c003200180ce80002fe2f000f0141001b
:101ba000f88057000900780024fd0700e0ff3700a7
:101bb0008d80fb008c0178000001eb0000fe2f00ff
:101bc0000f0040003a0107000000e0005d00320015
:101bd00018007800000ce8009041780016003700eb
:101be0008c0178000001eb00010f200000fe2f00a7
:101bf0000f0040002e0107000000e00051003200fd
:101c0000180ce8000fb097009fb097002fb1970015
:101c1000bfb19700e00f5000e08f5800e00f59006f
:101c2000e08f590003003a008001eb00e2fe210042
:101c30004000370083c7b30002fe2f000f014100b0
:101c4000f880570009007800d6fd0700b8ff37007c
:101c50000b0145008d80fb008c01780000fe2f00f9
:101c60000f0040006b010700360037008d80fb003d
:101c70000c01780000fe2f000f004000ed0007006f
:101c80000000e0002f00320018007800000ce8008f
:101c90009041780002fe2f000f014100f8805700ac
:101ca00009007800b7fe0700a1ff370000c8b300a5
:101cb00080cf560023003a00180ce8001c80e90091
:101cc000000e7800104078000d00370000c8b30007
:101cd00080cf56001b003a00180ce8001c80e90079
:101ce000000e78008001eb00100178001100370031
:101cf00001c8b30081cf560012003a00180ce8006a
:101d0000e0df9f000800370050c2b300e0df9f0013
:101d10000e0c78000000eb00c0b79f00e0b79f00fa
:101d20008080eb00d1b79f0013002000e2fd2f0060
:101d30000f014100f880570009007800f4fc07000b
:101d40007bff3700180ce8000a0078004f07780086
:101d50004f06be004f05be004f04be006f01b1002c
:101d6000000006008200fa00889fbe008a1f7800eb
:101d70000005780082047800c13f9f000004eb005a
:101d8000100037000902780088017800a2f72f00c0
:101d90000f01410081f72f008f8040000a0078007a
:101da00090fe070008004000880f500004003d002e
:101db000b0042000500089000084eb0004003700cc
:101dc000000478004f3897001004e000edff3a005f
:101dd000080078004f0578004f04be000080fa002c
:101de0000000060080007800040037003104e000a5
:101df00002003a00000051000000060001017800d6
:101e00000108a300f9ff3a00810178003101780050
:101e1000f4ef2f00020242000281ea000201620098
:101e20000408280004016100f7ff320083007800f5
:101e3000010178003104e000fdff3a00000051008c
:101e400000000600f28747008e1f7800020278002b
:101e5000030178000000e000020032000007780073
:101e600001003700728757008002eb000100e0009c
:101e7000010032008102e90070805700060009006d
:101e80000018eb007280570000a8eb002310200020
:101e900093bf9f00aebf9f00b1bf9f00c5bf9f0013
:101ea0000100e00004003d00b00420005000890063
:101eb0000080eb0005003700004feb00eebf9f00f5
:101ec000debf9f0084007800030007004f07780002
:101ed0002f01b100000006000200fa00881f780000
:101ee00000047800e2bf9f0064815700080078007a
:101ef0009cff0700980090000148a30001003200f9
:101f00000080eb004f0478000080fa00000006001b
:101f10000000fa00cfb8970068815700c6fd07009f
:101f20000080fa0000000600ebfb070043fc0700fe
:101f3000f3fc07001bfd070075fc370080007800ec
:101f40001000200002022000828f500004003200a6
:101f5000e9805000e48f5000010036000000eb00e3
:101f600000000600889fbe008a1f78008004780069
:101f70000904780088047800394578000a00fb00dd
:101f8000eeff07000000e000f9ff3a00b0c2b30026
:101f9000804f550005003200d0c2b3008000eb0036
:101fa000804f550005003a00020037008000eb002a
:101fb00001003700110020000804e8000000eb00d9
:101fc000030037006a02b900020052000003b000ab
:101fd0003801fb0003fd2f0082814100e98f510091
:101fe000f8ff36000100e00001003a000000ea00be
:101ff0004f0578004f04be0000000600f1fb2f00e3
:1020000080804000f98f500001003e000050a00089
:1020100000000600f9ff3700f1f92f008080400032
:10202000f98f500001003e00f005b20000000600ec
:10203000f9ff3700881f78000004780000082000ae
:10204000808f50001700350010082000808f50004e
:102050000b00340030082000808f500011003a003f
:102060009200780068805000000978003002be00bd
:102070002003be00049cbe000694be00070037008b
:102080009202780064805200000978001000be00bf
:102090009a000700009cbe000294be0010002000c1
:1020a000010037000000eb004f047800000006003c
:1020b00084082000848f50001d0032000d003c0079
:1020c00014082000848f50002700320002003c00da
:1020d000040820000400370024082000848f5000ea
:1020e0002a00320044082000848f500048003a0043
:1020f0003b003700040a2000848f50002c0032007f
:1021000004003c0004092000848f500040003a0085
:102110002d003700020c2000828f50001e0032007c
:10212000020f2000828f500039003a003000370043
:102130009380e9000200e000050032008109780088
:102140001102fb00cfa2de00612bb9002d00370089
:1021500081097800114278000482fb008002eb00c4
:102160006033b8002700370013027800e400520003
:102170000200e0000a003200810978001102be006e
:102180004fabde00860378001e0037009302780014
:10219000e88052000e00370093027800e48052007d
:1021a000810978001102be006033b80015003700c5
:1021b0009380e9008109780011027800cfa2de0047
:1021c000612bb9000f00370013037800e8005300bb
:1021d000810978003102be002103be0009003700ea
:1021e0009380e9000200e00002003200f1ff3700b6
:1021f0009380e90081097800110278008002eb00e9
:102200006033b8000498be000690be0010000500c0
:102210000000050044082000848f50002700320091
:102220000a003c0014082000848f50001c0032007b
:1022300024082000848f500026003200040820006b
:10224000848f50002c003a001c0037000409200045
:10225000848f50001f00320004003c0084082000de
:10226000848f500024003a0007003700040a200041
:10227000848f500011003200040c2000848f500025
:102280001d003a00060037009380e90081097800bc
:102290009100780001087800824878001500370026
:1022a0009380e900810978009100780001087800a6
:1022b000cf91de008288be000e0037009380e900d7
:1022c0008109780091007800010878008208780080
:1022d000080037009380e9008109780091007800b8
:1022e000010878006112b900612bb9008498be0022
:1022f0008690be00100005000000050081037800f4
:10230000f4f807000001be006000b8000478a300e4
:1023100013003a006220e10015003e000d00390074
:102320008301d1000281d3008180d3008301d100d9
:102330000281d3008180d3008301d1000281d300c8
:102340008180d3000538b000c42add00f300b2005c
:102350008381720007f0a70003f0a00000000600d0
:1023600083ff2700020020006110b900f9ff370049
:1023700003ff2700f7ff3700020ab900001bb9006e
:102380000200b80081004200810043000000060006
:10239000889fbe008a9fbe0030044200b0844a007d
:1023a00030054b0090854b006000b1000898be00de
:1023b0000a90be000440e10005c8e10006d0e1003b
:1023c00007d8e10002003100680040001008e80072
:1023d0004f05be004f04be0000000600889fbe00ef
:1023e0008a9fbe003004be002005be0004185400c1
:1023f00005985c0006185d0007985d00110020003c
:102400000440e10005c8e10006d0e10007d8e10082
:10241000010039008000eb00108810004f05be005d
:102420004f04be0000000600f4874700889fbe00ee
:102430008a9fbe008c9fbe008e1f7800d0b79f0081
:10244000e1b79f00f2b79f0083bf9f000605be0063
:102450000404be00cfae97000000eb00c0b79f00a1
:10246000b0b79f00a0b79f0090b79f0080b79f00b4
:10247000000678004fb09700000140000000e00027
:1024800006003d003c0007000f074700450007001d
:102490000f004000beff07000500370036000700b0
:1024a0000f0747003f0007000f004000cbff070069
:1024b0004fb797000e00e0000c0035005fb29700a8
:1024c000efb297007fb397008fbb970010002000fa
:1024d000010020006011b8000002720081827200c9
:1024e00002037300838373001c0007000c06e800de
:1024f00001042000810f5600deff3a000e00e000cc
:1025000005003d000802be000a03be0000fe2f00c9
:102510000f0040009eff07000d00e00005003a009c
:102520000fb297009fb297002fb39700bfb39700e9
:102530000a0007005fb09700efb097007fb19700e7
:102540008fb997004f0778004f06be004f05be00b9
:102550004f04be004f01b10000000600010007005b
:102560000000060094b79f00a5b79f00b6b79f0074
:10257000c7b79f00000006009fb097004f08de001d
:1025800002017000a2b79f000fb097004f01de005c
:10259000818040008100710091b79f000efe2f00e6
:1025a00000000600de0078004f09de000000400059
:1025b0000000710080b79f006fa897004f01de00f8
:1025c00081804000010f71000e0007004f3ade00cd
:1025d0000000400004007000e0af9f000900070009
:1025e0000402420085824a0006034b0087834b00a9
:1025f000dcff07000802be000a03be0000fe2f0039
:10260000000006001fb29700afb297003fb39700db
:10261000cfb3970000000600881f78001800200044
:10262000881f780080ff07008f87e9004f0478003b
:1026300000000600801feb007bff07008f87e9008a
:1026400000000600889fbe008a9fbe00e00f500079
:10265000e08f5800e00f5900e08f59000c003d005a
:102660006044b8006055b8000000540081805c00f0
:1026700002015d0083815d00180020001500070045
:1026800008003d00180007000004eb0005003700bb
:102690000004eb000f00070002003d0012000700dd
:1026a00018002000dcff07000800e00006003200f0
:1026b0006022b8006033b8000000520081805a00e8
:1026c00002015b0083815b004f05be004f04be002a
:1026d00000000600e00f5200e08f5a00e00f5b00a0
:1026e000e08f5b00000006006044b8006055b80051
:1026f0000402540085825c0006035d0087835d0050
:1027000000000600889fbe008a9fbe008c1f7800d4
:10271000e00f5000e08f5800e00f5900e08f5900a3
:102720000d003d006044b8006055b8000000540042
:1027300081805c0002015d0083815d001c0020003f
:102740000820e10009a8e1000ab0e1000bb8e100af
:102750000d003d00080037000006eb00e00f5200be
:10276000e08f5a00e00f5b00e08f5b0006003d0049
:102770006044b8006055b8000402540085825c00d3
:1027800006035d0087835d00aaff07000c00e000e0
:10279000060032006022b8006033b800000052002a
:1027a00081805a0002015b0083815b004f06780044
:0c27b0004f05be004f04be0000000600f4
:020000040000fa
:1027bc0050c30000320000000000000001020000c5
:1027cc00030400000506000007080000090a0000c9
:1027dc00000b0000903e0000fa3e00003d3d000062
:1027ec003d3d00003d3d00003d20000045520000f5
:1027fc00524f0000203d00003d3d00003d3d0000db
:10280c003d3d000000200000204e0000616f0000e4
:10281c00206600006f690000207000006f730000dc
:10282c0073690000766500006c00000020630000f6
:10283c007269000061720000206f000073200000bc
:10284c00736500006d610000666f0000726f000020
:10285c00730000003d3d00003d3d00003d3d00008b
:10286c003d3d00003d3d00003d3d00003d3d000074
:10287c003d3d00003d3d00003d3d0000005400008a
:10288c00656d0000702e0000204300006f6e00008c
:10289c00742e00003a2000002d2d00002d20000089
:1028ac00df43000000540000656d0000702e000036
:1028bc00204100006d620000742e00003a200000e0
:1028cc002d2d00002d200000df43000000500000e3
:1028dc00697300006f2e000020530000656c00002f
:1028ec00656300003a2000002d2d00002d00000033
:1028fc0050690000736f00002e200000417400002e
:10290c00756100006c3a0000202d00002d2d000098
:10291c0000740000656d00007065000072610000bd
:10292c0074750000726500005f6300006f6e00003c
:10293c00747200006f6c0000006300006c69000092
:10294c006d610000746500005f6300006f6e000035
:10295c00747200006f6c0000006600006972000069
:10296c00655f0000616c0000617200006d5f00002b
:10297c00636f00006e740000726f00006c0000004a
:10298c006c630000645f00006f75000074700000e1
:10299c0075740000006500006c6500007661000035
:1029ac00746f0000725f0000636f00006e740000b3
:1029bc00726f00006c000000656c00006576000012
:1029cc00617400006f7200005f6d00006f76000094
:1029dc006500000075610000727400005f63000008
:1029ec006f6e0000747200006f6c00000025000018
:1029fc00336400000053000069730000746500002c
:102a0c006d61000020640000652000005370000020
:102a1c00726900006e6b00006c6500007273000040
:102a2c000d0a0000004300006f6d0000616e000095
:102a3c00646f0000204900006e760000e16c00001d
:102a4c00696400006f0d00000a0000004174000072
:102a5c00697600006172000000440000657300009c
:102a6c006174000069760000617200000053000080
:102a7c00657400006f7200002025000063200000c8
:102a8c002d200000257300000d0a0000000000003e
:102a9c0011110000222200003333000044440000d6
:102aac0055550000666600007777000088880000a6
:102abc0099990000aaaa0000bbbb0000cccc000076
:102acc00dddd0000eeee0000cecd0000acab000072
:102adc007379000073740000656d00005f62000084
:102aec006f6f0000740000000400000049440000f7
:0c2afc004c450000000000000400000039
:020000040000fa
:102b08001000fa0064034700000b780066004700d5
:102b18000108780068004700020878006a0047004a
:102b2800030878006c004700040878006e0047002e
:102b38000508780040042000a7210700000f78004e
:102b48001e0078000000e000110032006800470015
:102b580010007800000040009f21070080007800e6
:102b68001e00780078004000010878001e007800f8
:102b780078004000100078000000e00004003a00ef
:102b88001e007800402207000000eb00000f7800cc
:102b98001e0078000000e0001900320068004700bd
:102ba800100078008000eb000001eb00821f780025
:102bb8009e0378006e014700120378006c014700fd
:102bc800920278006a014700120278000001be00f4
:102bd8006600470090007800640047001000780005
:102be8000e0007008f87e9001e007800a600070086
:102bf800110020000e80e80001087800030037006b
:102c08008080eb000e80e800010878000e80e80064
:102c1800100078000080fa00000006001400fa0096
:102c2800881f780064044700000c7800660047009d
:102c380001087800680047000288be006c00470061
:102c4800040878006e004700050878007000470007
:102c580006087800720047000708780072004700ed
:102c6800900078000e80e800f88040001108780095
:102c7800720047001000780078004000900078004b
:102c88006800470010017800f0ff270000004100ad
:102c9800000040008080400072004700100078006b
:102ca8008003b00001087800660047001000780033
:102cb8000000e0001e0032000000eb00000f78006a
:102cc8001000370066004700100078001e00400022
:102cd8009040780072004700100078001e00400005
:102ce8007a0040000148780066004700100078002c
:102cf8001e004000104078000004e000050032008b
:102d08001e0fe8001e007800fd0f5000edff360092
:102d18000100370000000000720047001000780032
:102d28008040eb007003b0000148780005003700d0
:102d380072004700100078008040eb007a004000e5
:102d4800014878006e00470010007800e40f50003a
:102d580003003600410020006e004700010878009b
:102d6800720047001000780076004000ee0047002f
:102d7800110878007200470010007800a003b00026
:102d8800ee00470011087800720047001000780034
:102d98008000eb00c003b000010878007200470013
:102da800100078000080e800c62507007200470080
:102db800100078006c004000c22507007200470030
:102dc8001000780068004000f20047001108780001
:102dd8006e00470010007800e50010007200470000
:102de800100078006c00400001087800720047006d
:102df8001000780072004000f200470011087800c7
:102e08007200470010007800e003b0004200200084
:102e18008000eb00c0f70700720047001000780040
:102e28002004b000120020008000eb00baf7070071
:102e38006c0047001001780064004700900078009b
:102e48000e80e800100078004f2607008000780008
:102e580072004700100078000108780070004700f1
:102e6800100078000000e000040032007000470005
:102e78009000780072004700900878004f047800ae
:102e88000080fa00000006000400fa008e80e800c6
:102e980080087800ef26070040fc80000000e8006a
:102ea80040fc8800e0f880000000e00008003a00dc
:102eb8000e80e80090007800e1f8880040fc80006f
:102ec800e10f500011003a00550807000f003700c5
:102ed80070fc80000000e0000c003a00e0f8800080
:102ee80076004000900078000e80e800100078001e
:102ef8007600400010007800808f500003003e00ec
:102f08000e80e80090007800e1f88800b0fc8000ae
:102f18000000e800b0fc88000e80e800100078008f
:102f2800760040009000780060fc8000808f5000a0
:102f3800050036000e80e80010007800760040009a
:102f48001000780060fc88000e80e800100078000f
:102f580076004000100078006a00b9008000780010
:102f6800e0f12100008040000080e800100f7800a8
:102f78000e80e80010007800640040001e08780009
:102f88001e00780064004000900078000e80e80081
:102f98001000780066004000010878001e007800e4
:102fa80064004000100178000e80e80010007800ee
:102fb8008080e8000280e800010878000e80e800c0
:102fc800100078008080e8001e007800640040004f
:102fd800010878000e80e8001000780076004000b4
:102fe800100078006a00b90080007800e0f1210044
:102ff800808040000e80e800100078006a004000e1
:10300800010878000e80e800100078007600400083
:10301800100078006a00b90080007800e0f1210013
:1030280000804000900078008100e80001087800e6
:103038009526070070fc80000000e0000c003200bc
:10304800e0f8800076004000900078000e80e800ec
:10305800100078007600400010007800808f500043
:1030680003003100ee6602000000000000000000ce
:103078000080fa00000006000400fa008e80e800d4
:1030880080087800732607000e80e800100078009a
:103098000000e00002003a00e0f88000020037007b
:1030a8000e80e80010007800000f78001e80e8000d
:1030b8007e2507001e00780074004000100078008c
:1030c8000000e000030032009e0078006c804000a1
:1030d80076250700b0fc80000000e800b0fc8800fe
:1030e800e0f880009e007800808f500008003a00c9
:1030f8001e80e8008000780020f72100f9240700ee
:10310800e0fb80000000e800e0fb880004003700d6
:1031180040fc80000000e90040fc8800ff07070031
:1031280059260700e0f880009e007800808f500044
:10313800020032001e007800ee07070070fc8000d5
:103148000000e00007003200e0f880009e007800f0
:10315800808f500003003a00ee6602000000000075
:10316800000000000080fa00000006000c00fa00d1
:1031780068014700000978006a00470001087800e4
:103188000000eb00000f7800a40207000e80e800a2
:1031980051fc8000010878006800470010007800a2
:1031a800900078006a004700100078008080400096
:1031b80064004700010878006800470010007800a4
:1031c800900078000e80e80010007800808f500092
:1031d8001000360068004700100078009000780062
:1031e8006400470010007800808f500018003600f7
:1031f80064004700900078000e80e8001000780016
:10320800808f50001200360010002000000f780058
:103218000f00370068004700100078009000780021
:103228006400470010007800808f500006003e00c0
:1032380064004700900078000e80e80010007800d5
:10324800808f50000200360010002000000f780028
:1032580068004700900078006400470090087800f4
:103268001e0078000000e0000700320064004700fc
:10327800900078000e80e800100078000080500070
:103288008000eb00240e07006a0207008000780027
:1032980066004700010878006600470010007800c3
:1032a8000000e00003003a00ee66020000000000a3
:1032b800000000001e0078000080fa0000000600f0
:1032c8000400fa008e80e800800878000000eb0017
:1032d800000f78000e80e800100078000000e00081
:1032e800070032004d0207008000eb000e80e80066
:1032f80010007800080e07004e020700000f780043
:103308001e0078000000e00003003a00ee660200ac
:1033180000000000000000000080fa000000060025
:103328000e00fa006a014700000978006c004700a7
:10333800010878000000eb00000f78006c004700df
:1033480010007800e40f5000030036004100200010
:103358006c00470001087800be2507006a00470096
:10336800100078000000e00002003a00e0f8800059
:10337800020037006a004700100078008e80e800dd
:10338800800878000e80e80090007800640047000c
:10339800a103b0001108780064004700900078008d
:1033a8006c00470010007800808f5000a3003200a6
:1033b8006c00470090007800640047001000780017
:1033c800808f50000f003600e1f880000e80e80082
:1033d80010007800810f500011003200e0f88000e2
:1033e80076004000900078006c00470010007800dc
:1033f800808f50000a003e0010002000000f780067
:1034080007003700e1f880000e80e800100078001f
:10341800810f500002003a0010002000000f7800d1
:103428000e80e8009000780066004700f6804000b3
:10343800110878000e80e80010007800a003b000a2
:10344800900078000e80e8001000780076004000b8
:1034580010007800808f500005003a000e80e800c8
:103468001000780076004000ec0047001108780052
:103478000e80e80010007800a003b000ec004700c0
:10348800110878000e80e800100078006c004000f9
:10349800100078000000e000070035006c004700cd
:1034a80010007800e50010000e80e8001000780099
:1034b8006c004000010878000e80e80010007800d9
:1034c8006a0040001001780066004700100078008c
:1034d8006a00b90080007800e0f121000080400017
:1034e800800f51004f003a000e80e800100078006d
:1034f8000080e8006d2407000e80e80010007800c6
:10350800760040009000780060fc8000808f5000ba
:10351800050036000e80e8001000780076004000b4
:103528001000780060fc88000e80e8001000780029
:1035380076004000100078006a00b900800078002a
:10354800e0f1210080804000680047008180e800a9
:10355800110878000e80e800100078006400400030
:10356800e80047001108780068004700100078005c
:1035780064004000900078000e80e8001000780099
:1035880066004000010878006800470010007800d5
:1035980064004000100178000e80e80010007800f8
:1035a8008080e8000280e800010878000e80e800ca
:1035b800100078008080e80068004700100078005c
:1035c80064004000010878000e80e80010007800d0
:1035d80076004000100078006a00b900800078008a
:1035e800e0f12100808040000e80e80010007800a3
:1035f8006a004000010878000e80e800100078009a
:1036080076004000100078006a00b9008000780059
:10361800e0f1210000804000900078008100e8007f
:10362800010878001e0078000000e0000300320066
:10363800ee660200000000000000000012250700ee
:103648000080fa00000006000600fa00e4004700c7
:1036580080087800ff240700640047001000780005
:103668000000e00002003a00e0f8800002003700a5
:1036780064004700100078008e80e8008008780019
:103688000e80e800100078000080e800072407009a
:103698000e80e800100078007400400010007800e8
:1036a8000000e000040032000e80e80010007800fe
:1036b8006c004000fd2307000e80e8001000780031
:1036c8000080e80080007800e0f7210085230700eb
:1036d8000000eb00000f78000f0037000e80e800b4
:1036e80090007800220420001e0041000080400065
:1036f80010407800e14f500006003a000e80e800c4
:10370800100078001e0040002004b0008040eb004c
:10371800014878001e0fe8001e0078000000e00055
:10372800eeff3400d824070070fc80000000e000a1
:1037380003003200c724070078060700d2240700d8
:10374800e1f880000e80e80010007800810f50003a
:103758000e003a0070fc80000000e0000400320017
:10376800ee660200000000000000000007003700bd
:10377800f1fb800040fc8000808f500002003a007e
:103788001c3fef0001003700640307000080fa00c7
:10379800000006000600fa00e400470080087800f0
:1037a8000000eb00000f78000e80e800e4004700fe
:1037b800110878000e80e800100078006a004000c8
:1037c80090007800e0f72100808f50000f003a0049
:1037d8000e80e80010007800740040009000780027
:1037e80080f62100808f5000080032000e80e8002b
:1037f8001000780074004000100078000000e0001d
:1038080002003a0010002000000f78001e00780027
:103818000080fa00000006000600fa00e4004700f5
:103828008008780064004700100f7800e0f88000f6
:103838009e007800808f5000550032001e007800ee
:103848000000e00052003200822407001e007800c9
:10385800d0ff07000000e0004c0032001e80e800a6
:10386800922307001e007800760040009000780040
:1038780060fc8000808f5000040036001e00780035
:10388800760040001000780060fc88001e00780078
:1038980076004000100078006a00b90080007800c7
:1038a800e0f12100808040000e80e8008180e8007f
:1038b800110878001e007800640040008e80e8003f
:1038c800110878000e80e8001000780064004000bd
:1038d800900078001e00780066004000010878001b
:1038e8000e80e800100078006400400010007800a6
:1038f8009e80e8000080e800010878009e80e800cb
:103908000e80e8001000780064004000010878008c
:103918001e00780076004000100078006a00b900a8
:1039280080007800e0f12100808040001e007800cf
:103938006a004000010878001e0078007600400008
:10394800100078006a00b90080007800e0f12100da
:1039580000804000900078008100e80001087800ad
:103968001e0078007600400090007800e0f88000a3
:103978007600400010007800808f50000300390066
:10398800ee66020000000000000000003e24070070
:103998000080fa00000006000a00fa00e80047006c
:1039a800800878000000eb00000f78000e80e80027
:1039b800e8004700110878008000eb006400470029
:1039c800010878000e80e8001000780071ff0700f9
:1039d8000000e00066003200e0fc80000000e0002b
:1039e8005d003a000e80e800100078007600400084
:1039f80090007800e0f88000760040001000780021
:103a0800808f50000400390010002000000f78005b
:103a18001000200090fc88000e80e800100078005c
:103a28000080e800212307000e80e80010007800dd
:103a3800760040009000780060fc8000808f500085
:103a4800050036000e80e80010007800760040007f
:103a58001000780060fc88000e80e80010007800f4
:103a680076004000100078006a00b90080007800f5
:103a7800e0f1210080804000660047008180e80076
:103a8800110878000e80e8001000780064004000fb
:103a9800e60047001108780066004700100078002b
:103aa80064004000900078000e80e8001000780064
:103ab80066004000010878006600470010007800a2
:103ac80064004000100178000e80e80010007800c3
:103ad8008080e8000280e800010878000e80e80095
:103ae800100078008080e800660047001000780029
:103af80064004000010878000e80e800100078009b
:103b080076004000100078006a00b9008000780054
:103b1800e0f12100808040000e80e800100078006d
:103b28006a004000010878000e80e8001000780064
:103b380076004000100078006a00b9008000780024
:103b4800e0f1210000804000900078008100e8004a
:103b580001087800060037000e80e80010007800a1
:103b68006c0040008000780080f621005d2207008c
:103b78001e0078000080fa00000006000200fa002b
:103b8800a5f921000002eb008001eb0032072000bc
:103b9800c1572900c07f2200d9fb0700000f780019
:103ba8001e007800e10f50000d003a00110280005d
:103bb800f0f12f00008060000050a0001002880083
:103bc80000000000000000000080eb00c0fc88003e
:103bd8001000200070fc88008a3fef006f23070068
:103be800d0ab84000080fa00000006000000fa0054
:103bf80011028000f0f12f00008060000050a0004a
:103c08001002880000000000000000008e3fef0056
:103c1800792307000080fa00000006000000fa007f
:103c2800e0fc80000000e800e0fc88000080fa006a
:103c3800000006000c00fa000000eb00000f7800fe
:103c48008000eb000e80e80001087800812307005f
:103c5800e0fc80000000e900e0fc8800e0fc800057
:103c68000000e000d2003a0040fc80000000e000c4
:103c7800cf003200a800370070fb800066004000cb
:103c880010007800000f78009e007800660047005a
:103c9800f4804000110878001e0078006e00400093
:103ca800900078001e007800700040001001780035
:103cb80064804000020878001e0078007000400010
:103cc800900078001e0078006e0040001001780017
:103cd8000180e800020878006600470010007800bc
:103ce8000080e800900078001e0178006c00410018
:103cf800808f500007003a001e00780070004000d6
:103d08009000780066004700100078000080e80006
:103d1800010878001e0078008000eb007400400065
:103d2800010878006600470010007800100078004d
:103d38008000e9006600470010007800010878005c
:103d48009e00780068004700ea804000110878006b
:103d58001e00780064004000900078001e00780083
:103d68006600400010017800648040000208780076
:103d78001e00780066004000900078001e00780061
:103d880064004000100178000180e8000208780013
:103d980068004700100078000080e8009000780074
:103da8001e80e800808f500007003a001e0078004f
:103db8006600400090007800680047001000780016
:103dc8000080e800010878001e0078008000eb0001
:103dd8006a00400001087800680047001000780079
:103de800100078008000e9006800470010007800a3
:103df800010878001e0078007600400090007800e6
:103e080060fc8000808f5000040036001e0078009f
:103e1800760040001000780060fc88001e007800e2
:103e280076004000100078006a00b9008000780031
:103e3800e0f12100808040006a0047008180e800ae
:103e4800110878001e00780064004000ea0047006e
:103e5800110878006a0047001000780064004000ec
:103e6800900078001e007800660040000108780085
:103e78006a004700100078006400400010007800d5
:103e88009e80e8000080e800010878009e80e80035
:103e98006a004700100078006400400001087800bc
:103ea8001e00780076004000100078006a00b90013
:103eb80080007800e0f12100808040001e0078003a
:103ec8006a004000010878001e0078007600400073
:103ed800100078006a00b90080007800e0f1210045
:103ee80000804000900078008100e8000108780018
:103ef8001e0078007600400090007800e0f880000e
:103f08007600400010007800808f500002003900d1
:103f18001000200090fc880040fb80000000e000ba
:103f280055ff3a001e0078000000e0000100320052
:103f38007a0407006400470081fc800001087800cb
:103f480064004700100078000000e0000f00320015
:103f5800500007000000e0000200320010002000be
:103f680090fc880064004700100078008000e90099
:103f780064004700010878006400470010007800da
:103f88000000e000f2ff3a00903fef0090fc800054
:103f98000000e00006003200110020000e80e8005a
:103fa80001087800ee660200000000000000000032
:103fb800b52207000e80e800100078000080fa00a3
:103fc800000006000200fa00a222070051fc80004f
:103fd800010f7800ac2207001e0078000080fa006c
:103fe800000006000400fa000000eb00000f780053
:103ff8000e80e80051fc8000010878000e80e8007f
:10400800100078000080fa00000006000000fa00a6
:1040180040fc80000080fa00000006000400fa005e
:104028008e80e800800878000e80e8001000780094
:104038000000e00002003a00e0f8800002003700cb
:104048000e80e80010007800000f78009e007800cd
:104058007a8040000080fa00000006000400fa00a0
:104068008e80e80080087800ecfe070081fc800064
:104078000e80e800100078000080400080fc880076
:10408800ecfe0700000f78001e0078000080fa00a0
:10409800000006001000fa000000eb00000f780096
:1040a800e0fc80000000e00016013a0050fc8000af
:1040b8008000e8000e80e800010878000e80e80023
:1040c8009000780051fc88000e80e800100078000d
:1040d8000000e0000c003a006400470021fb80006b
:1040e8000108780030fb800020fb8800640047004e
:1040f8009000780031fb8800a0fc80000000e800f8
:10410800a0fc880005040700c1fc80000e80e800c0
:1041180010007800810f5000e800390001003700d6
:104128000000000020fb8000100078000000e00084
:1041380003003a000080eb00c0fc8800df00370075
:1041480020fb8000660040001000780066004000f8
:104158009000780066004700010878006600470074
:1041680090007800680047008180e8001108780016
:104178000e80e80090007800680047001000780082
:10418800808f5000040031006800470090007800dc
:10419800c1fc8800c900370066004700900078001d
:1041a8006a004700ea80400011087800660047006e
:1041b8001000780064004000900078006600470016
:1041c800100078006600400010017800648040000c
:1041d800020878006600470010007800660040007a
:1041e80090007800660047001000780064004000e6
:1041f800100178000180e800020878006a00470092
:10420800100078000080e800900078006600470001
:10421800100078000080e800808f500008003a0005
:1042280066004700100078006600400090007800a3
:104238006a004700100078000080e8000108780054
:1042480066004700100078008000eb006a0040001c
:10425800010878006a004700100078001000780014
:104268008000e9006a004700100078000108780023
:1042780066004700100078007400400010007800c5
:104288000000e00036003200660047009000780029
:104298006c004700f4804000110878006600470071
:1042a800100078006e00400090007800660047001b
:1042b8001000780070004000100178006480400011
:1042c800020878006600470010007800700040007f
:1042d8009000780066004700100078006e004000eb
:1042e800100178000180e800020878006c0047009f
:1042f800100078000080e800900078006600470011
:10430800100078006c004000808f500008003a00d0
:1043180066004700100078007000400090007800a8
:104328006c004700100078000080e8000108780061
:1043380066004700100078008000eb007400400021
:10434800010878006c004700100078001000780021
:104358008000e9006c004700100078000108780030
:104368006600470010007800760040009000780052
:1043780060fc8000808f5000050036006600470012
:1043880010007800760040001000780060fc88007b
:1043980066004700100078007600400010007800a2
:1043a8006a00b90080007800e0f1210080804000b8
:1043b8006e0047008180e800110878006600470019
:1043c8001000780064004000ee00470011087800f3
:1043d8006e004700100078006400400090007800ec
:1043e8006600470010007800660040000108780069
:1043f8006e0047001000780064004000100178004b
:1044080066004700100078008080e8000280e8001d
:104418000108780066004700100078008080e800f6
:104428006e00470010007800640040000108780022
:104438006600470010007800760040001000780001
:104448006a00b90080007800e0f121008080400017
:1044580066004700100078006a00400001087800f4
:1044680066004700100078007600400010007800d1
:104478006a00b90080007800e0f121000080400067
:10448800900078008100e800010878006600470085
:10449800100078007600400090007800e0f8800076
:1044a8007600400010007800808f50001cff390013
:1044b80010002000000f78001aff3700e0f8800095
:1044c80076004000100078006a00b900800078008b
:1044d800e0f121000080400010007800e10f50005a
:1044e8000200360010002000000f780090fc8000c9
:1044f8000000e0000600320010002000000f7800e5
:104508000300370080fc80000000e80080fc880081
:104518001e0078000080fa00000006000400fa007f
:10452800e0fc80000000e0000300320010002000e2
:1045380090fc88003a003700923fef0061fc800051
:10454800010f7800010037001e0fe9001e007800f7
:104558006a00b90080007800e0f121000080400086
:10456800100078000000e000f7ff32001e0078001d
:104578006a00b90080007800e0f1210080804000e6
:104588000e80e800010878000e80e800100078002e
:104598000080e800100078000080e80090007800b3
:1045a8000e80e800100078000080e800010878001c
:1045b8000e80e800100078000080e8009000780085
:1045c8000e80e8001000780064004000808f5000e2
:1045d8000a003a000e80e800100078000080e80029
:1045e800100078000080e800900078000e80e80055
:1045f800100078000080e800010878000e80e800cc
:10460800100078000080e800100078006600400084
:1046180010007800e0f888009e00780061fc8800af
:104628000080fa00000006000400fa00000f78007d
:104638000e80e80001087800e0f880006c00400077
:10464800800078001e007800d21f070011002000ab
:104658000e80e800100078002f0907000080fa009b
:10466800000006000800fa008e81e8008009780042
:1046780064004700010878006600470002087800d7
:10468800e2f880006400470010007800800078009d
:1046980001f0a0006c004100010878000e80e800dd
:1046a800100078000080e800100f7800e0f8800023
:1046b8006e0040001e087800e1f880001e007800b7
:1046c8006400400010017800708040000208780003
:1046d8001e0078006400400010007800e1f88000b7
:1046e800ec8040000080e80001087800e0f88000d5
:1046f800ec0040001e0078006400400001087800cb
:10470800e0f88000740040008e80e800110878000e
:104718000e80e80010007800100078008000e800a3
:104728000e80e800100078000108780011002000d1
:104738006600470010007800f70807000080fa00bc
:10474800000006000e00fa00ec0047008008780020
:104758006c004700100078006600400010007800e8
:1047680066004000900078000e80e800010878009c
:104778000e80e8009000780064004700f480400054
:10478800110878000e80e800100078006e004000e4
:10479800900078000e80e80010007800700040005b
:1047a8001001780064804000020878000e80e8005c
:1047b8001000780070004000900078000e80e8003b
:1047c800100078006e004000100178000180e800b9
:1047d8000208780064004700100078000080e800b4
:1047e800900078000e80e800100078006c0040000f
:1047f800808f500008003a000e80e8001000780012
:1048080070004000900078006400470010007800b5
:104818000080e800010878000e80e80010007800a9
:104828008000eb0074004000010878006400470035
:1048380010007800100078008000e900640047004c
:104848001000780001087800e0fc80000000e0001b
:1048580082003a000e80e800900078006600470069
:10486800ea804000110878000e80e8001000780007
:1048780064004000900078000e80e8001000780086
:10488800660040001001780064804000020878004b
:104898000e80e80010007800660040009000780064
:1048a8000e80e800100078006400400010017800d5
:1048b8000180e800020878006600470010007800d0
:1048c8000080e800900078000e80e8001000780072
:1048d8000080e800808f500008003a000e80e80051
:1048e80010007800660040009000780066004700dd
:1048f800100078000080e800010878000e80e800c9
:10490800100078008000eb006a0040000108780081
:104918006600470010007800100078008000e90069
:104928006600470010007800010878000e80e80053
:1049380010007800760040009000780060fc80004d
:10494800808f5000050036000e80e80010007800c7
:10495800760040001000780060fc88000e80e800b7
:104968001000780076004000100078006a00b90056
:1049780080007800e0f12100808040006800470056
:104988008180e800110878000e80e80010007800a7
:1049980064004000e80047001108780068004700fc
:1049a8001000780064004000900078000e80e80055
:1049b8001000780066004000010878006800470091
:1049c8001000780064004000100178000e80e800b4
:1049d800100078008080e8000280e8000108780074
:1049e8000e80e800100078008080e800680047002a
:1049f8001000780064004000010878000e80e8008c
:104a08001000780076004000100078006a00b900b5
:104a180080007800e0f12100808040000e80e800ee
:104a2800100078006a004000010878000e80e80055
:104a38001000780076004000100078006a00b90085
:104a480080007800e0f121000080400090007800ac
:104a58008100e80001087800280037006a00470054
:104a680051fb8000010878000e80e80010007800f3
:104a78006e004000ea004700110878006a0047000d
:104a88001000780064004000900078000e80e80074
:104a98001000780070004000010878006a004700a4
:104aa8001000780064004000100178000e80e800d3
:104ab80010007800ec0040000280e800010878004f
:104ac8000e80e80010007800ec0040006a00470003
:104ad8001000780064004000010878000e80e800ab
:104ae8001000780081f62100740040000108780069
:104af80040fb80000000e80040fb88000e80e800d2
:104b0800100078007600400090007800e0f88000ff
:104b18007600400010007800808f500005003600b5
:104b280010002000000f78001000200090fc880082
:104b3800020037000000eb00000f78001e0078002c
:104b48000080fa00000006000c00fa006801470027
:104b5800000978006a004700010878006a004700e9
:104b6800100078008000780001f0a000680047007d
:104b780010007800010878006800470010007800ed
:104b88006600400010007800000f780068004700b9
:104b9800900078000e80e800e88040001108780056
:104ba80068004700100078000080e8009000780056
:104bb8006800470010007800640040001001780089
:104bc8006480400002087800680047001000780000
:104bd80064004000900078006800470010007800ea
:104be8000080e800100178000180e80002087800e1
:104bf8000e80e800100078000080e800900078003f
:104c08006800470010007800808f500008003a00c4
:104c180068004700100078006400400090007800a9
:104c28000e80e800100078000080e8000108780095
:104c380068004700100078008000eb006800400022
:104c4800010878000e80e800100078001000780055
:104c58008000e9000e80e800100078000108780064
:104c68009e00780064004700ea8040001108780040
:104c78001e00780064004000900078001e00780054
:104c88006600400010017800648040000208780047
:104c98001e00780066004000900078001e00780032
:104ca80064004000100178000180e80002087800e4
:104cb80064004700100078000080e8009000780049
:104cc8001e80e800808f500007003a001e00780020
:104cd80066004000900078006400470010007800eb
:104ce8000080e800010878001e0078008000eb00d2
:104cf8006a0040000108780064004700100078004e
:104d0800100078008000e900640047001000780077
:104d1800010878001e0078007600400090007800b6
:104d280060fc8000808f5000040036001e00780070
:104d3800760040001000780060fc88001e007800b3
:104d480076004000100078006a00b9008000780002
:104d5800e0f1210080804000660047008180e80083
:104d6800110878001e00780064004000e600470043
:104d780011087800660047001000780064004000c1
:104d8800900078001e007800660040000108780056
:104d980066004700100078006400400010007800aa
:104da8009e80e8000080e800010878009e80e80006
:104db8006600470010007800640040000108780091
:104dc8001e00780076004000100078006a00b900e4
:104dd80080007800e0f12100808040001e0078000b
:104de8006a004000010878001e0078007600400044
:104df800100078006a00b90080007800e0f1210016
:104e080000804000900078008100e80001087800e8
:104e18001e0078007600400090007800e0f88000de
:104e28007600400010007800808f500002003600a5
:104e38001000200090fc88000080fa0000000600a6
:104e48000200fa00000f7800021f0700a1fc800092
:104e58001e0078000108780051fc80001e007800d0
:104e68000080e80001087800071f07000080fa00aa
:104e7800000006000200fa00000f7800a1fc800084
:104e88001e0078000108780051fc80001e007800a0
:104e98000080e800010878000080fa0000000600a1
:104ea8000a00fa0066014700000978006800470018
:104eb80001087800e71e07000e80e80051fc80001a
:104ec8000108780066004700100078000080e800bc
:104ed800900078000e80e8001000780081005000f3
:104ee8006400470001087800680047001000780057
:104ef80010007800e10f400003003a000000eb00ca
:104f0800000f780031003700660047001000780075
:104f180090007800a0fc8000808f50000f003200c5
:104f280066004700100078000080e80090007800d4
:104f38000e80e80010007800808f500007003e00c7
:104f480010002000000f780068004700100078006b
:104f58008000eb00010878001c003700680047005b
:104f68001000780090007800640047001000780076
:104f7800808f50000f00360068004700100078004e
:104f8800900078006400470010007800808050008e
:104f980068004700100078000108780066004700a4
:104fa80010007800b3ff07000000eb00000f780046
:104fb8000600370068004700100078008000eb000a
:104fc8000108780010002000000f7800ae1e0700ce
:104fd8001e0078000080fa00000006000000fa00b9
:104fe8001000200090fc88000080fa0000000600f5
:104ff8000200fa00000f78000100370000000000ee
:1050080025000700f0f88000e10f5000fbff360094
:10501800ee6602000000000000000000f8ff370004
:105028000200fa000000eb00000f780007003700cc
:105038001e0078006a00b90080007800e0f12100c5
:1050480000804000021d07001e0fe8001e007800c7
:10505800e40f5000f6ff360000f52100fc1c0700a5
:10506800a0f52100fa1c070080f62100f81c0700b3
:1050780020f72100f61c0700e0f72100f41c0700c8
:1050880000f5210020fb8800a0f5210030fb8800f6
:105098000080fa00000006000200fa001000370045
:1050a8006c1e0700c0fb80006600400010007800fe
:1050b800000f78001e80e8007c1d070040fc80007f
:1050c8000000e90040fc8800e0fb80000000e900e7
:1050d800e0fb88006c1e07001e0078000500070032
:1050e800e0fb80000000e000edff3a000080fa00dd
:1050f800000006000200fa00000f78001e00780089
:105108007800400010007800df1807001e007800c3
:10511800dd1807000080fa00000006000000fa0011
:1051280020fb8000100078000000e00003003a0037
:105138000080eb00c0fc88000500370020fb8000e1
:10514800660040001000780010007800c0fc88005d
:105158000080fa00000006000200fa00e1f8800072
:10516800010f78001e0078000080fa000000060099
:105178000800fa00e6004700800878000e80e80082
:10518800e6004700110878000000eb00000f7800e7
:1051980066004700100078000000e000910032002f
:1051a8000e80e8001000780076004000900078003b
:1051b800e0f880007600400010007800808f5000f2
:1051c8007d0031000e80e800100078006c0040007f
:1051d800100078000000e00008003500e0f88000ca
:1051e8007600400010007800e50010000e80e8000e
:1051f800100078006c004000010878000e80e8007c
:10520800100078006a004000100178000e80e80065
:105218001000780076004000100078006a00b9009d
:1052280080007800e0f1210000804000800f5100ec
:1052380057003a000e80e800100078000080e8006f
:105248001a1d0700e0f88000760040009000780002
:105258000e80e80010007800760040000108780011
:105268000e80e8001000780076004000900078007a
:1052780060fc8000808f5000050036000e80e8003a
:1052880010007800760040001000780060fc88006c
:105298000e80e800100078007600400010007800ca
:1052a8006a00b90080007800e0f1210080804000a9
:1052b800640047008180e800110878000e80e8004b
:1052c8001000780064004000e400470011087800ee
:1052d80064004700100078006400400090007800e7
:1052e8000e80e80010007800660040000108780091
:1052f8006400470010007800640040001001780046
:105308000e80e800100078008080e8000280e80045
:10531800010878000e80e800100078008080e8001e
:10532800640047001000780064004000010878001d
:105338000e80e80010007800760040001000780029
:105348006a00b90080007800e0f121008080400008
:105358000e80e800100078006a004000010878001c
:105368000e80e800100078007600400010007800f9
:105378006a00b90080007800e0f121000080400058
:10538800900078008100e8000108780007003700e5
:10539800e0f8800076004000900078000e80e80079
:1053a8001000780076004000010878001000200006
:1053b800000f78000b0037000e80e800100078001e
:1053c800a003b00090007800e0f88000760040006c
:1053d80010007800808f500002003100100020007b
:1053e800000f78001e0078000080fa000000060018
:1053f8000800fa00e6004700800878000e80e80000
:10540800e6004700110878000000eb00000f780064
:1054180066004700100078000000e0007b003200c2
:105428000e80e80010007800c003b000100078007b
:105438008000e9000e80e80010007800c003b0008a
:10544800010878000e80e80010007800760040001f
:10545800900078000e80e80010007800a003b000eb
:1054680010007800808f5000680032000e80e8003d
:1054780010007800c003b000100078000000e000c1
:1054880062003a000e80e800100078000080e80012
:10549800861c07000e80e80010007800a003b0000a
:1054a800900078000e80e800100078007600400038
:1054b800010878000e80e8001000780076004000af
:1054c80010007800e50010000e80e8001000780059
:1054d8006c004000010878000e80e8001000780099
:1054e800760040009000780060fc8000808f5000bb
:1054f800050036000e80e8001000780076004000b5
:105508001000780060fc88000e80e8001000780029
:1055180076004000100078006a00b900800078002a
:10552800e0f1210080804000640047008180e800ad
:10553800110878000e80e800100078006400400030
:10554800e400470011087800640047001000780064
:1055580064004000900078000e80e8001000780099
:1055680066004000010878006400470010007800d9
:1055780064004000100178000e80e80010007800f8
:105588008080e8000280e800010878000e80e800ca
:10559800100078008080e800640047001000780060
:1055a80064004000010878000e80e80010007800d0
:1055b80076004000100078006a00b900800078008a
:1055c800e0f12100808040000e80e80010007800a3
:1055d8006a004000010878000e80e800100078009a
:1055e80076004000100078006a00b900800078005a
:1055f800e0f1210000804000900078008100e80080
:105608000108780010002000000f78001e007800c4
:105618000080fa00000006000e00fa006a01470048
:10562800000978006c004700010878000e80e80047
:10563800ea004700110878001100200064004700c4
:10564800010878006a004700100078000000e000b8
:105658008d0032000e80e80010007800a003b00032
:10566800900078006c00470010007800808f500090
:10567800030031006c004700100f78000400370069
:105688000e80e80010007800a003b000100f78002a
:105698000e80e800100078007600400010007800c6
:1056a8009e0f5000780032000e80e800100078004d
:1056b800c003b00090007800640047001000780034
:1056c800808f500070003a000e80e800900078004b
:1056d80066004700f6804000110878000e80e80058
:1056e80010007800760040001e0878000e80e80060
