:0400000006EF00F017
:0C000800C8ED07F014EE98F042EF18F07D
:10060000000102030405060708090A000B54656D82
:10061000702E20416D62742E3A20256420430054D0
:10062000656D702E20436F6E742E3A202564204332
:10063000005069736F2E2053656C65633A20256402
:10064000005069736F2E20417475616C3A202564E7
:100650000000080EE126000EE222F29EE150F60FA5
:10066000D96EE250DA6EFF0EDA2204EE96F0EECF8B
:1006700037F0EDCF38F06E0E3702F3CF35F0F4CF10
:1006800036F03802F35036266C0E3524E96E020E31
:100690003620EA6EDECFEEFFDDCFEDFFFC0E96C416
:1006A000E3FFFD0E97C4E3FFF29EFC0EE3CF37F0AD
:1006B000FD0EE3CF38F06E0E3702F3CF35F0F4CFF6
:1006C00036F03802F3503626060E3524D96E020E67
:1006D0003620DA6EDE04D8A470EF03F072EF03F078
:1006E00042EF04F0FC0EE3CF37F0FD0EE3CF38F01D
:1006F0006E0E3702F3CF35F0F4CF36F03802F350F8
:100700003626690E3524D96E020E3620DA6EE0CF19
:10071000DFFFFC0EE3CF37F0FD0EE3CF38F06E0EB7
:100720003702F3CF35F0F4CF36F03802F3503626E7
:100730006A0E3524D96E020E3620DA6ED8CFDFFF6E
:10074000FC0EE3CF37F0FD0EE3CF38F06E0E37022C
:10075000F3CF35F0F4CF36F03802F35036266B0E77
:100760003524D96E020E3620DA6EE8CFDFFFF80EA0
:10077000E36AF90EE36A03EF04F0F80EE3CF37F013
:10078000F90EE3CF38F0030E3702F3CF35F0F4CF94
:1007900036F03802F3503626FC0EE3CF37F0FD0E6C
:1007A000E3CF38F06E0E3702F3CF33F0F4CF34F0EE
:1007B0003802F3503426000E376E020E386E070EE4
:1007C0003726000E38223350372634503822355021
:1007D0003724D96E36503820DA6EFDCFDEFFFECFDB
:1007E000DEFFFFCFDEFF0600F80EE350010F2D6E97
:1007F000F80E2DC0E3FF2D6AF90EE3502D202D6E6B
:10080000F90E2DC0E3FFFC50D8A409EF04F00BEF64
:1008100004F0BDEF03F0FC0EE3CF37F0FD0EE3CFA5
:1008200038F06E0E3702F3CF35F0F4CF36F03802E1
:10083000F3503626060E3524D96E020E3620DA6EB7
:10084000020EDF6EE150F80FD96EE250DA6EFF0E45
:10085000DA22FC0EE3CF37F0FD0EE3CF38F06E0E58
:100860003702F3CF35F0F4CF36F03802F3503626A6
:10087000670E3524E96E020E3620EA6EDECFEEFFFB
:10088000DDCFEDFFF28E8FEC19F02DC096F42EC067
:1008900097F4000E0C6E050E0B6EFA0E96C4E3FF75
:1008A000FB0E97C4E3FFF29EFA0EE3CF37F0FB0E88
:1008B000E3CF38F06E0E3702F3CF35F0F4CF36F0D9
:1008C0003802F3503626670E3524D96E020E3620D4
:1008D000DA6EDECF37F0DDCF38F0FE0E37C0E3FF43
:1008E000FF0E38C0E3FFFC6AFE0EE3CF2DF0FF0ED3
:1008F000E3502D10D8B47FEF04F081EF04F03FEF08
:1009000005F0FA0EE3CF37F0FB0EE3CF38F06E0EB2
:100910003702F3CF35F0F4CF36F03802F3503626F5
:10092000690E3524D96E020E3620DA6EDF50E06E85
:10093000FA0EE3CF37F0FB0EE3CF38F06E0E37023E
:10094000F3CF35F0F4CF36F03802F35036266A0E86
:100950003524D96E020E3620DA6EDF50D86EFA0ECC
:10096000E3CF37F0FB0EE3CF38F06E0E3702F3CF54
:1009700035F0F4CF36F03802F35036266B0E3524BE
:10098000D96E020E3620DA6EDF50386E385010EF16
:1009900005F0FE0EE3CF2DF0010E2D5EFE0E2DC0F4
:1009A000E3FFFF0EE3CF2DF0000E2D5AFF0E2DC0FA
:1009B000E3FF0500FE0EE3CF37F0FF0EE3CF38F084
:1009C000030E3702F3CF35F0F4CF36F03802F35090
:1009D0003626FA0EE3CF37F0FB0EE3CF38F06E0E7B
:1009E0003702F3CF33F0F4CF34F03802F35034262B
:1009F000000E376E020E386E070E3726000E3822B4
:100A0000335037263450382235503724D96E36507B
:100A10003820DA6EDECFFDFFDECFFEFFDDCFFFFF39
:100A2000FE0EE3CF2DF0FF0EE3502D10D8A41BEFE8
:100A300005F01DEF05F0C9EF04F0E150FE0FD96E8F
:100A4000E250DA6EFF0EDA22FA0EE3CF37F0FB0E39
:100A5000E3CF38F06E0E3702F3CF35F0F4CF36F037
:100A60003802F3503626670E3524E96E020E362022
:100A7000EA6EDECFEEFFDDCFEDFF5EEF05F00500A5
:100A8000FA0EE3CF37F0FB0EE3CF38F06E0E3702ED
:100A9000F3CF35F0F4CF36F03802F3503626000E9F
:100AA0003524D96E020E3620DA6EDECF37F0DDCF78
:100AB00038F037C0FDFF38C0FEFFFF6AFA0EE3CF03
:100AC00037F0FB0EE3CF38F06E0E3702F3CF35F080
:100AD000F4CF36F03802F3503626060E3524D96EA0
:100AE000020E3620DA6E010EDF6EF28EF28EF60EF8
:100AF000E126FF0EE2221200120EE126000EE22293
:100B0000E40EE124D96EFF0EE220DA6E080E2D6E9F
:100B1000F00EDECFE3FFE8282D2EFBD7F70EE3BE65
:100B200094EF05F097EF05F0010E98EF05F0000E39
:100B3000376E386AFA0E37C0E3FFFB0E38C0E3FFAA
:100B4000FA0EE3CF2DF0FB0EE3502D10D8B4ABEF2F
:100B500005F0ADEF05F0D2EF05F0F00EE36CF10E0D
:100B6000E31EF20EE31EF30EE31EF40EE31EF50E7B
:100B7000E31EF60EE31EF70EE31E14E3F10EE32A66
:100B800011E3F20EE32A0EE3F30EE32A0BE3F40E75
:100B9000E32A08E3F50EE32A05E3F60EE32A02E36F
:100BA000F70EE32A06BED7EF05F0D9EF05F0DAEF2E
:100BB00005F0079206BEE7EF05F0065006E10504D2
:100BC000D8B0E5EF05F0E7EF05F0F3EF05F0010E23
:100BD000376E000E386EFE0E37C0E3FFFF0E38C0D2
:100BE000E3FFF9EF05F0FE0E05C0E3FFFF0E06C0C0
:100BF000E3FFFC0E03C0E3FFFD0E04C0E3FFFA0EAB
:100C0000E3CF2DF0FB0EE3502D10D8A40AEF06F031
:100C10000CEF06F013EF06F007A411EF06F013EF48
:100C200006F01DEF06F0E150FC0FD96EE250DA6ECF
:100C3000FF0EDA22DE06000EDD5A1F0E376E000EA2
:100C4000386EF80E37C0E3FFF90E38C0E3FF2C6AA8
:100C500004EF07F0E150F80FD96EE250DA6EFF0EA4
:100C6000DA22DE06000EDD5A0A0EE66E000EE66E91
:100C7000000EE66E000EE66E000EE66E000EE66EEC
:100C8000000EE66E000EE66EE150E80FD96EE250FF
:100C9000DA6EFF0EDA22DECFE6FFDECFE6FFDECF32
:100CA000E6FFDECFE6FFDECFE6FFDECFE6FFDECFFC
:100CB000E6FFDECFE6FF66EC0CF0E552E7CF44F04E
:100CC000E552E7CF43F0E552E7CF42F0E552E7CFF8
:100CD00041F0E552E7CF40F0E552E7CF3FF0E55273
:100CE000E7CF3EF0E552E7CF3DF0F80EE126FF0EEC
:100CF000E2223DC037F03EC038F037C0E6FF38C0D2
:100D0000E6FFCBEC18F0300E2D26F80EE3CF37F0CF
:100D1000F90EE3CF38F00D0E3724D96E000E3820CF
:100D2000DA6E2DC0DFFFE150FE0FD96EE250DA6EB1
:100D3000FF0EDA22DE06000EDD5AE150FC0FD96EFE
:100D4000E250DA6EFF0EDA22DE06000EDD5A0A0EDF
:100D5000E66E000EE66E000EE66E000EE66E000E0B
:100D6000E66E000EE66E000EE66E000EE66EE150D8
:100D7000E80FD96EE250DA6EFF0EDA22DECFE6FF20
:100D8000DECFE6FFDECFE6FFDECFE6FFDECFE6FF1B
:100D9000DECFE6FFDECFE6FFDECFE6FFAAEC09F00E
:100DA000E552E7CF44F0E552E7CF43F0E552E7CF15
:100DB00042F0E552E7CF41F0E552E7CF40F0E5528F
:100DC000E7CF3FF0E552E7CF3EF0E552E7CF3DF009
:100DD000F80EE126FF0EE222F00E3DC0E3FFF10E19
:100DE0003EC0E3FFF20E3FC0E3FFF30E40C0E3FF5F
:100DF000F40E41C0E3FFF50E42C0E3FFF60E43C020
:100E0000E3FFF70E44C0E3FFF90EE3BE12EF07F075
:100E1000F90EE35009E1F80EE304D8A012EF07F051
:100E200014EF07F059EF07F0F00EE35019E1F10E5F
:100E3000E35016E1F20EE35013E1F30EE35010E13C
:100E4000F40EE3500DE1F50EE3500AE1F60EE35027
:100E500007E1F70EE350D8A430EF07F032EF07F0C8
:100E60002AEF06F0FF0EE3BE42EF07F0FF0EE3505D
:100E700007E1FE0EE304D8B040EF07F042EF07F0C1
:100E80002AEF06F0FD0EE3BE50EF07F0FD0EE35033
:100E900009E1FC0EE304D8A050EF07F052EF07F091
:100EA00059EF07F007B257EF07F059EF07F02AEFB5
:100EB00006F0FA0EE3CF2DF0FB0EE3502D10D8A470
:100EC00064EF07F066EF07F06DEF07F007A46BEF34
:100ED00007F06DEF07F0A9EF07F0E150F80FD96EBA
:100EE000E250DA6EFF0EDA22DE06000EDD5AFA0E4E
:100EF000E3CF2DF0FB0EE3502D10D8A482EF07F0C6
:100F000084EF07F090EF07F02B0E376E000E386E6F
:100F1000EE0E37C0E3FFEF0E38C0E3FF9AEF07F0A5
:100F20002D0E376E000E386EEE0E37C0E3FFEF0E5B
:100F300038C0E3FFF80EE3CF37F0F90EE3CF38F017
:100F40000D0E3724D96E000E3820DA6EEE0EE3CF88
:100F5000DFFFFC0EE3CFE6FFE3CFE6FF0D0E376EBB
:100F6000000E386EF60EE3503726F70EE3503822A7
:100F700037C0E6FF38C0E6FFE80EE3CFE6FFE3CF79
:100F8000E6FF67EC12F0E40EE126FF0EE22212000B
:100F90000600E1CF4FF0E2CF50F0D9CF51F0DACFD9
:100FA00052F0F3CF53F0F4CF54F02DC055F02EC0D3
:100FB00056F035C057F036C058F037C059F038C039
:100FC0005AF015EE4CF0F2A4E8EF07F0EAEF07F064
:100FD00091EF09F06BEC10F0F2940B06D8A00C0620
:100FE0000B500C10D8A4F7EF07F0F9EF07F090EFD3
:100FF00009F096C45FF097C460F0F29E6E0EE66E44
:10100000000EE66E5FC0E6FF60C0E6FFBBEC15F0C9
:10101000060E2D24D96E020E2E20DA6EDE04D8A420
:1010200014EF08F016EF08F0ADEF08F06E0EE66E64
:10103000000EE66E5FC0E6FF60C0E6FFBBEC15F099
:10104000690E2D24D96E020E2E20DA6EE0CFDFFF5E
:101050006E0EE66E000EE66E5FC0E6FF60C0E6FF55
:10106000BBEC15F06A0E2D24D96E020E2E20DA6E1E
:10107000D8CFDFFF6E0EE66E000EE66E5FC0E6FFB5
:1010800060C0E6FFBBEC15F06B0E2D24D96E020E8E
:101090002E20DA6EE8CFDFFF5B6A5C6A7FEF08F034
:1010A0006E0EE66E000EE66E5FC0E6FF60C0E6FF05
:1010B000BBEC15F0000E4D6E020E4E6E070E4D2667
:1010C000000E4E222D504D262E504E22030EE66E5F
:1010D000000EE66E5BC0E6FF5CC0E6FFBBEC15F001
:1010E0002D504D24D96E2E504E20DA6EFDCFDEFFEE
:1010F000FECFDEFFFFCFDEFF06005B4A5C2AFC501E
:10110000D8A485EF08F087EF08F050EF08F06E0ED6
:10111000E66E000EE66E5FC0E6FF60C0E6FFBBEC69
:1011200015F0060E2D24D96E020E2E20DA6E000E5A
:10113000DF6E6E0EE66E000EE66E5FC0E6FF60C00C
:10114000E6FFBBEC15F0670E2D24D96E020E2E20A3
:10115000DA6E5BC0DEFF5CC0DDFFF28E8FEC19F053
:101160002DC096F42EC097F4000E0C6E050E0B6E7B
:1011700096C461F097C462F0F29E6E0EE66E000EA9
:10118000E66E61C0E6FF62C0E6FFBBEC15F0670EDD
:101190002D24D96E020E2E20DA6EDECF5DF0DDCF6B
:1011A0005EF0FC6A5D505E10D8B4D9EF08F0DBEF5A
:1011B00008F063EF09F06E0EE66E000EE66E61C099
:1011C000E6FF62C0E6FFBBEC15F0690E2D24D96E78
:1011D000020E2E20DA6EDF50E06E6E0EE66E000E0E
:1011E000E66E61C0E6FF62C0E6FFBBEC15F06A0E7A
:1011F0002D24D96E020E2E20DA6EDF50D86E6E0EC0
:10120000E66E000EE66E61C0E6FF62C0E6FFBBEC74
:1012100015F06B0E2D24D96E020E2E20DA6EDF50E3
:101220004D6E4D5044EF09F05D06D8A05E060500F6
:101230006E0EE66E000EE66E61C0E6FF62C0E6FF6F
:10124000BBEC15F0000E4D6E020E4E6E070E4D26D5
:10125000000E4E222D504D262E504E22030EE66ECD
:10126000000EE66E5DC0E6FF5EC0E6FFBBEC15F06B
:101270002D504D24D96E2E504E20DA6EDECFFDFF5C
:10128000DECFFEFFDDCFFFFF5D505E10D8A44BEF39
:1012900009F04DEF09F014EF09F06E0EE66E000E46
:1012A000E66E61C0E6FF62C0E6FFBBEC15F0670EBC
:1012B0002D24D96E020E2E20DA6E5DC0DEFF5EC0D8
:1012C000DDFF7DEF09F005006E0EE66E000EE66EA6
:1012D00061C0E6FF62C0E6FFBBEC15F0000E2D24F6
:1012E000D96E020E2E20DA6EDECF4DF0DDCF4EF03D
:1012F0004DC0FDFF4EC0FEFFFF6A6E0EE66E000E93
:10130000E66E61C0E6FF62C0E6FFBBEC15F0060EBC
:101310002D24D96E020E2E20DA6E010EDF6EF28EB3
:10132000D66A5AC038F059C037F058C036F057C0A6
:1013300035F056C02EF055C02DF054C0F4FF53C008
:10134000F3FF52C0DAFF51C0D9FF50C0E2FF4FC0D7
:10135000E1FF11000A0EE126000EE222FE0EE36A12
:10136000ED0EE3BEB8EF09F0B6EF09F0E0EF09F0DB
:10137000E60EE36CE70EE31EE80EE31EE90EE31E45
:10138000EA0EE31EEB0EE31EEC0EE31EED0EE31E73
:1013900014E3E70EE32A11E3E80EE32A0EE3E90E75
:1013A000E32A0BE3EA0EE32A08E3EB0EE32A05E364
:1013B000EC0EE32A02E3ED0EE32AFE0EE36AE32AD3
:1013C000F50EE3BEE8EF09F0E6EF09F00FEF0AF0E3
:1013D000EE0EE36CEF0EE31EF00EE31EF10EE31EC5
:1013E000F20EE31EF30EE31EF40EE31EF50EE31EF3
:1013F00014E3EF0EE32A11E3F00EE32A0EE3F10EFD
:10140000E32A0BE3F20EE32A08E3F30EE32A05E3F3
:10141000F40EE32A02E3F50EE32AFE0EE370070E54
:101420002D6EF60EE36AE82A2D06FCE2E60EE35086
:101430001BE1E70EE35018E1E80EE35015E1E90E79
:10144000E35012E1EA0EE3500FE1EB0EE3500CE142
:10145000EC0EE35009E1ED0EE350D8B432EF0AF0A0
:1014600034EF0AF0CCEF0AF0FF0EE36AE32A4CEF08
:101470000AF0D890E60EE336E70EE336E80EE336E0
:10148000E90EE336EA0EE336EB0EE336EC0EE33616
:10149000ED0EE336FF0EE32AED0EE3AE52EF0AF057
:1014A00054EF0AF039EF0AF0D890F60EE336F70E53
:1014B000E336F80EE336F90EE336FA0EE336FB0EAA
:1014C000E336FC0EE336FD0EE336E150EE0FD96E47
:1014D000E250DA6EFF0EDA22E60EE350DE5CE70E33
:1014E000E350DE58E80EE350DE58E90EE350DE58D4
:1014F000EA0EE350DE58EB0EE350DE58EC0EE350FC
:10150000DE58ED0EE350DE58D8A089EF0AF08BEFDD
:101510000AF0ACEF0AF0E150EE0FD96EE250DA6E4D
:10152000FF0EDA22E60EE350DE5EE70EE350DE5AEF
:10153000E80EE350DE5AE90EE350DE5AEA0EE350BD
:10154000DE5AEB0EE350DE5AEC0EE350DE5AED0E9F
:10155000E350DE5AF60EE380D890ED0EE332EC0E47
:10156000E332EB0EE332EA0EE332E90EE332E80E49
:10157000E332E70EE332E60EE332FF0EE3502D6E68
:10158000010E2D5EFF0E2DC0E3FFD8A4CAEF0AF0B6
:10159000CCEF0AF054EF0AF0FE0EE350D8B4D3EFCC
:1015A0000AF0D5EF0AF0FAEF0AF0F60EE36CF70E48
:1015B000E31EF80EE31EF90EE31EFA0EE31EFB0E09
:1015C000E31EFC0EE31EFD0EE31E14E3F70EE32AFA
:1015D00011E3F80EE32A0EE3F90EE32A0BE3FA0E09
:1015E000E32A08E3FB0EE32A05E3FC0EE32A02E309
:1015F000FD0EE32AF60EE124D96EFF0EE220DA6E2C
:10160000080E2D6EEE0EDECFE3FFE8282D2EFBD761
:10161000F60EE126FF0EE2221200190EE126000E60
:10162000E222010E376E000E386EFC0E37C0E3FF6B
:10163000FD0E38C0E3FFF29E010EE66E030EE66E6D
:10164000F5EC12F065C0E6FF66C0E6FF310EE66E0F
:10165000060EE66EE30EE1242D6EFF0EE2202E6EE6
:101660002DC0E6FF2EC0E6FF060EE66EECEC13F092
:10167000E70EE1242D6EFF0EE2202E6E2DC0E6FF58
:101680002EC0E6FF6FEC15F0F28EFC0EE3CFE6FF06
:10169000E3CFE6FF22EC15F0F29E410E2D6EEE0E2A
:1016A000E82EFED72D2EFCD700D0F28ED7EC17F007
:1016B000FE0E2DC0E3FFFF0E2EC0E3FFF29EFE0ED6
:1016C000E3CF2DF0FF0EE3502D10D8B46AEF0BF0EE
:1016D0006CEF0BF032EF0CF0FC0E376EFF0E386E35
:1016E000FE0EE3CF35F0FF0EE3CF36F0030E3502EA
:1016F000F3CF33F0F4CF34F03602F3503426010E3A
:10170000356E060E366E3350352634503622FC0EBA
:10171000E3503526FD0EE35036223750352638503B
:10172000362235C0F6FF36C0F7FF0800F550000935
:10173000D8B49DEF0BF09FEF0BF032EF0CF0FC0EE6
:10174000376EFF0E386EFE0EE3CF35F0FF0EE3CF9F
:1017500036F0030E3502F3CF33F0F4CF34F0360217
:10176000F3503426010E356E060E366E3350352694
:1017700034503622FC0EE3503526FD0EE35036225F
:10178000375035263850362235C0F6FF36C0F7FFC1
:101790000A0E0800F560CFEF0BF0D1EF0BF032EF3F
:1017A0000CF06550671807E166506818D8A4DBEFA5
:1017B0000BF0DDEF0BF032EF0CF0FC0E376EFF0E8E
:1017C000386EFE0EE3CF35F0FF0EE3CF36F0030E9A
:1017D0003502F3CF33F0F4CF34F03602F350342631
:1017E000010E356E060E366E3350352634503622D5
:1017F000FC0EE3503526FD0EE350362237503526D9
:101800003850362235C0F6FF36C0F7FF0800F550D5
:10181000656E666A010EE66E030EE66EF5EC12F07A
:1018200065C0E6FF66C0E6FF310EE66E060EE66EA8
:10183000E30EE1242D6EFF0EE2202E6E2DC0E6FF9A
:101840002EC0E6FF060EE66EECEC13F0E70EE12488
:101850002D6EFF0EE2202E6E2DC0E6FF2EC0E6FF9D
:101860006FEC15F0F28EFC0EE350010F2D6EFC0EA6
:101870002DC0E3FF2D6AFD0EE3502D202D6EFD0ED1
:101880002DC0E3FFFD0EE3BE53EF0CF0FD0EE35061
:101890000CE1FC0EE3CF2DF0040E2D5ED8A053EF2B
:1018A0000CF055EF0CF045EF0BF0010E376E000E0B
:1018B000386EFC0E37C0E3FFFD0E38C0E3FF45EF86
:1018C0000BF0E70EE126FF0EE2221200E652E6528E
:1018D000FE0EE36AFD0EE3BE72EF0CF070EF0CF04B
:1018E0009AEF0CF0F60EE36CF70EE31EF80EE31E13
:1018F000F90EE31EFA0EE31EFB0EE31EFC0EE31EC2
:10190000FD0EE31E14E3F70EE32A11E3F80EE32ABB
:101910000EE3F90EE32A0BE3FA0EE32A08E3FB0ECB
:10192000E32A05E3FC0EE32A02E3FD0EE32AFE0EA2
:10193000E36AE32AF50EE3BEA2EF0CF0A0EF0CF091
:10194000C7EF0CF0EE0EE36CEF0EE31EF00EE31E9D
:10195000F10EE31EF20EE31EF30EE31EF40EE31E81
:10196000F50EE31E14E3EF0EE32A11E3F00EE32A73
:101970000EE3F10EE32A0BE3F20EE32A08E3F30E83
:10198000E32A05E3F40EE32A02E3F50EE32AEE0E62
:10199000E3501BE1EF0EE35018E1F00EE35015E1C8
:1019A000F10EE35012E1F20EE3500FE1F30EE350BB
:1019B0000CE1F40EE35009E1F50EE350D8B4E3EF87
:1019C0000CF0E5EF0CF06AEF0DF0FF0EE36AE32A8E
:1019D000FDEF0CF0D890EE0EE336EF0EE336F00E8E
:1019E000E336F10EE336F20EE336F30EE336F40E91
:1019F000E336F50EE336FF0EE32AF50EE3AE03EF12
:101A00000DF005EF0DF0EAEF0CF0E150F60FD96E96
:101A1000E250DA6EFF0EDA22EE0EE350DE5CEF0EDD
:101A2000E350DE58F00EE350DE58F10EE350DE587E
:101A3000F20EE350DE58F30EE350DE58F40EE3509E
:101A4000DE58F50EE350DE58D8A029EF0DF02BEF4D
:101A50000DF04AEF0DF0E150F60FD96EE250DA6E5C
:101A6000FF0EDA22EE0EE350DE5EEF0EE350DE5A9A
:101A7000F00EE350DE5AF10EE350DE5AF20EE35060
:101A8000DE5AF30EE350DE5AF40EE350DE5AF50E42
:101A9000E350DE5AD890F50EE332F40EE332F30E43
:101AA000E332F20EE332F10EE332F00EE332EF0EE8
:101AB000E332EE0EE332FF0EE3502D6E010E2D5E8B
:101AC000FF0E2DC0E3FFD8A468EF0DF06AEF0DF014
:101AD00005EF0DF0FE0EE350D8B471EF0DF073EF8B
:101AE0000DF098EF0DF0F60EE36CF70EE31EF80E16
:101AF000E31EF90EE31EFA0EE31EFB0EE31EFC0EC0
:101B0000E31EFD0EE31E14E3F70EE32A11E3F80EC5
:101B1000E32A0EE3F90EE32A0BE3FA0EE32A08E3C5
:101B2000FB0EE32A05E3FC0EE32A02E3FD0EE32AA3
:101B3000F60EE124D96EFF0EE220DA6E080E2D6E4D
:101B4000F60EDECFE3FFE8282D2EFBD7E552E55257
:101B50001200080EE126000EE222F40EE3CFD9FFB8
:101B6000F50EE3CFDAFFDECFF6FFDDCFF7FF08009B
:101B7000F550250AD8A4BFEF0DF0C1EF0DF08FEF9F
:101B80000EF0F40EE3CFD9FFF50EE3CFDAFFDE2A35
:101B9000000EDD22036A046A076A086A056806689F
:101BA000F40EE3CFD9FFF50EE3CFDAFFDECFF6FF79
:101BB000DDCFF7FF0800F550640AD8B4E2EF0DF06E
:101BC000E4EF0DF0F8EF0DF0F40EE3CFD9FFF50ED2
:101BD000E3CFDAFFDECFF6FFDDCFF7FF0800F550E9
:101BE000690AD8A4F6EF0DF0F8EF0DF052EF0EF001
:101BF000F40EE3CFD9FFF50EE3CFDAFFDE2A000EB5
:101C0000DD22F20EE3CFD9FFF30EE3CFDAFF020EAF
:101C1000DE5E000EDD5ADECF37F0DDCF38F037C0A4
:101C2000D9FF38C0DAFFDECF37F0DDCF38F0F80E5D
:101C300037C0E3FFF90E38C0E3FF2D6AE3BE2D681D
:101C4000FA0E2DC0E3FFFB0E2DC0E3FFFC0E2DC0EE
:101C5000E3FFFD0E2DC0E3FFFE0E2DC0E3FFFF0EE0
:101C60002DC0E3FFE150F80FD96EE250DA6EFF0E9F
:101C7000DA22DECFE6FFDECFE6FFDECFE6FFDECF05
:101C8000E6FFDECFE6FFDECFE6FFDECFE6FFDECF0C
:101C9000E6FFEE0EE3CFE6FFE3CFE6FF7CEC05F0D8
:101CA000B0EF0EF0F40EE3CFD9FFF50EE3CFDAFF7D
:101CB000DECFF6FFDDCFF7FF0800F550250AD8A4E8
:101CC00064EF0EF066EF0EF080EF0EF0F40EE3CF4F
:101CD000D9FFF50EE3CFDAFFDE2A000EDD22F60E85
:101CE000E3CFE6FFE3CFE6FF250EE66E000EE66EDD
:101CF000D3EC11F0010E2D6E000E2E6EB0EF0EF033
:101D0000F40EE3CFD9FFF50EE3CFDAFFDE2A000EA3
:101D1000DD22000E2D6E000E2E6EB0EF0EF0F60ED0
:101D2000E3CFE6FFE3CFE6FFF20EE3CFD9FFF30EFA
:101D3000E3CFDAFFDECFF6FFDDCFF7FF0800F55087
:101D4000E66E000EE66ED3EC11F0F40EE3CFD9FF91
:101D5000F50EE3CFDAFFDE2A000EDD227AEF0EF079
:101D6000F20EE126FF0EE22212001B0EE126000E0B
:101D7000E222000EE66EDDEC16F0FE0E2DC0E3FF53
:101D8000FF0E2EC0E3FF010EE66EDDEC16F0FC0E3A
:101D90002DC0E3FFFD0E2EC0E3FFFE0EE3CF37F0B4
:101DA000FF0EE3CF38F0FC0EE350375EFD0EE3503C
:101DB000385AFA0E37C0E3FFFB0E38C0E3FFF29E3D
:101DC000010EE66E020EE66EF5EC12F0FA0EE3CFAF
:101DD00037F0FB0EE3CF38F038343830366E37301A
:101DE000356E35C0E6FF36C0E6FF0D0EE66E060E18
:101DF000E66EE10EE1242D6EFF0EE2202E6E2DC068
:101E0000E6FF2EC0E6FF060EE66EECEC13F0E50EE4
:101E1000E1242D6EFF0EE2202E6E2DC0E6FF2EC0B7
:101E2000E6FF6FEC15F0F28ED8906334376E6434B1
:101E3000386E010E3726000E3822FA0EE350375C5A
:101E40003850800A2D6EFB0EE350800A2D58D8B012
:101E50002CEF0FF02EEF0FF042EF0FF0000EE66EBA
:101E6000000EE66E0EEC19F0010EE66E000EE66E48
:101E70002AEC19F0000EE66E000EE66E45EC19F045
:101E800088EF0FF0FF0E376EFF0E386ED890633478
:101E9000356E6434366E3750352638503622FA0E99
:101EA000E3CF2DF035502D5CFB0EE350800A2D6EF4
:101EB0003650800A2D58D8B060EF0FF062EF0FF067
:101EC00076EF0FF0010EE66E000EE66E0EEC19F0E6
:101ED000000EE66E000EE66E2AEC19F0000EE66EBD
:101EE000000EE66E45EC19F088EF0FF0000EE66E7E
:101EF000000EE66E0EEC19F0000EE66E000EE66EB9
:101F00002AEC19F0010EE66E000EE66E45EC19F0B3
:101F1000F40EE66E010EE66E29EC03F0B9EF0EF05A
:101F2000E50EE126FF0EE2221200150EE126000E5C
:101F3000E222F29E010EE66E040EE66EF5EC12F061
:101F400067C0E6FF68C0E6FF410EE66E060EE66E6D
:101F5000E70EE1242D6EFF0EE2202E6E2DC0E6FF6F
:101F60002EC0E6FF060EE66EECEC13F0EB0EE1245D
:101F70002D6EFF0EE2202E6E2DC0E6FF2EC0E6FF76
:101F80006FEC15F0F28E6750651809E1685066181D
:101F9000D8B4CDEF0FF0CFEF0FF055EF10F00950A0
:101FA0000A10D8A4D6EF0FF0D8EF0FF000EF10F022
:101FB000F29E000E0A6E010E096E6750655C665057
:101FC000800A2D6E6850800A2D58D8B0EAEF0FF0C5
:101FD000ECEF0FF0EEEF0FF01EEC1AF06550675CBF
:101FE0006850800A2D6E6650800A2D58D8B0FBEFDD
:101FF0000FF0FDEF0FF0FFEF0FF014EC1AF0F28E80
:10200000F40EE66E010EE66E29EC03F0F29E6750C8
:10201000655C6650800A2D6E6850800A2D58D8B0D5
:1020200014EF10F016EF10F019EF10F06706D8A0BB
:1020300068066550675C6850800A2D6E6650800A9D
:102040002D58D8B026EF10F028EF10F02AEF10F03E
:10205000674A682A010EE66E040EE66EF5EC12F091
:1020600067C0E6FF68C0E6FF410EE66E060EE66E4C
:10207000E70EE1242D6EFF0EE2202E6E2DC0E6FF4E
:102080002EC0E6FF060EE66EECEC13F0EB0EE1243C
:102090002D6EFF0EE2202E6E2DC0E6FF2EC0E6FF55
:1020A0006FEC15F0F28EC3EF0FF0F29E09500A109C
:1020B000D8B45DEF10F05FEF10F063EF10F0096A35
:1020C0000A6A19EC1AF0F28EC3EF0FF0EB0EE1265C
:1020D000FF0EE2221200E652E652FE0EE36AFF0E07
:1020E000E36A0BEF11F0FE0EE3CF37F0FF0EE3CF04
:1020F00038F06E0E3702F3CF35F0F4CF36F03802F9
:10210000F3503626060E3524D96E020E3620DA6ECE
:10211000020EDE18D8A48FEF10F091EF10F0FCEF54
:1021200010F0FE0EE3CF37F0FF0EE3CF38F06E0E67
:102130003702F3CF35F0F4CF36F03802F3503626BD
:102140006C0E3524D96E020E3620DA6EDE50DE10AB
:10215000D8B4ADEF10F0AFEF10F0FCEF10F0FE0EC2
:10216000E3CF37F0FF0EE3CF38F06E0E3702F3CF38
:1021700035F0F4CF36F03802F35036266C0E3524A5
:10218000D96E020E3620DA6EDE06000EDD5AFE0E25
:10219000E3CF37F0FF0EE3CF38F06E0E3702F3CF08
:1021A00035F0F4CF36F03802F35036266C0E352475
:1021B000D96E020E3620DA6EDE50DE10D8A4E3EFC0
:1021C00010F0E5EF10F0FCEF10F0FE0EE3CF37F06B
:1021D000FF0EE3CF38F06E0E3702F3CF35F0F4CFB9
:1021E00036F03802F3503626060E3524D96E020E2C
:1021F0003620DA6E000EDF6EFE0EE350010F2D6EFC
:10220000FE0E2DC0E3FF2D6AFF0EE3502D202D6E34
:10221000FF0E2DC0E3FF24EE94F0FE0EE3CF2DF071
:10222000DE502D5CFF0EE3CF2DF0DE502D58D8A0F0
:102230001CEF11F01EEF11F073EF10F0E552E552B4
:102240001200150EE126000EE222F29E010EE66E4D
:10225000010EE66EF5EC12F063C0E6FF64C0E6FF27
:102260001F0EE66E060EE66EE70EE1242D6EFF0EE3
:10227000E2202E6E2DC0E6FF2EC0E6FF060EE66EB3
:10228000ECEC13F0EB0EE1242D6EFF0EE2202E6E2F
:102290002DC0E6FF2EC0E6FF6FEC15F0F28ED4ECF9
:1022A00019F02D502E10D8A458EF11F05AEF11F05C
:1022B0008EEF11F0E80EE66E030EE66E29EC03F0E9
:1022C000634A642AF29E010EE66E010EE66EF5EC9C
:1022D00012F063C0E6FF64C0E6FF1F0EE66E060E56
:1022E000E66EE70EE1242D6EFF0EE2202E6E2DC06D
:1022F000E6FF2EC0E6FF060EE66EECEC13F0EB0EEA
:10230000E1242D6EFF0EE2202E6E2DC0E6FF2EC0C2
:10231000E6FF6FEC15F0F28E4FEF11F0E0EC19F0E4
:102320002D502E10D8A497EF11F099EF11F04FEF28
:1023300011F0E80EE66E030EE66E29EC03F063067C
:10234000D8A06406F29E010EE66E010EE66EF5EC74
:1023500012F063C0E6FF64C0E6FF1F0EE66E060ED5
:10236000E66EE70EE1242D6EFF0EE2202E6E2DC0EC
:10237000E6FF2EC0E6FF060EE66EECEC13F0EB0E69
:10238000E1242D6EFF0EE2202E6E2DC0E6FF2EC042
:10239000E6FF6FEC15F0F28E4FEF11F0EB0EE12639
:1023A000FF0EE2221200FC0EE3CF2DF0FD0EE350F3
:1023B0002D10D8B4DEEF11F0E0EF11F0EDEF11F0D9
:1023C000FC0EE3CF2DF0FD0EE3502D10D8A4EBEF63
:1023D00011F0EDEF11F0F4EF11F0FE0EE350E66EA8
:1023E00026EC1AF062EF12F0FC0EE3CF37F0FD0E90
:1023F000E3CF38F0090E3724D96E000E3820DA6E9C
:10240000DE50DE10D8B407EF12F009EF12F030EF13
:1024100012F0FC0EE3CF37F0FD0EE3CF38F0090EDB
:102420003724D96E000E3820DA6EFC0EE3CF37F079
:10243000FD0EE3CF38F0030E3724E96E000E38208E
:10244000EA6EDE50EE5CEE50800A2D6EDE50800AA1
:102450002D58D8B02EEF12F030EF12F062EF12F0DC
:10246000FC0EE3CF37F0FD0EE3CF38F0030E372438
:10247000D96E000E3820DA6EDECF37F0DDCF38F0BF
:10248000FC0EE3CFD9FFFD0EE3CFDAFFDECF35F050
:10249000DDCF36F037503524D96E38503620DA6E1D
:1024A000FE0EE3CFDFFFFC0EE3CF37F0FD0EE3CFF0
:1024B00038F0030E3724D96E000E3820DA6EDE2A8B
:1024C000000EDD22E552E552E552E5521200E652D9
:1024D000E652E652E65207A070EF12F072EF12F0E9
:1024E0007EEF12F0FA0EE3CFE6FFE3CFE6FFF60E43
:1024F000E3CFE6FFE3CFE6FF50EC16F0F70EE3BEC6
:1025000084EF12F086EF12F094EF12F0F60EE3CFA4
:102510002DF0FC0E2DC0E3FFF70EE3CF2DF0FD0EE6
:102520002DC0E3FF98EF12F0FC0EE36AFD0EE36AA4
:10253000FE0EE36AFF0EE36AB8EF12F0FA0EE3CF85
:10254000E6FFE3CFE6FF200EE66E000EE66ED3EC6C
:1025500011F0FE0EE350010F2D6EFE0E2DC0E3FFB5
:102560002D6AFF0EE3502D202D6EFF0E2DC0E3FFD0
:10257000E150FE0FD96EE250DA6EFF0EDA22FC0E49
:10258000E350DE5CDE50800A2D6EFD0EE350800AC3
:102590002D58D8A0CEEF12F0D0EF12F09EEF12F02F
:1025A00007B0D5EF12F0D7EF12F0E3EF12F0FA0E0A
:1025B000E3CFE6FFE3CFE6FFF60EE3CFE6FFE3CFA0
:1025C000E6FF50EC16F0F80EE3CFE6FFE3CFE6FFB0
:1025D0005DEC17F0FC0EE3502D26FD0EE3502E228D
:1025E000F60EE126FF0EE2221200E652E652E65215
:1025F000FC0EE304D8A4FFEF12F001EF13F027EF75
:1026000013F07F0E386EFB0EE3503824376EFD0E4C
:1026100037C0E3FFFD0EE3CF38F0383A0F0E38161F
:10262000FF0E38C0E3FFFD0EE3CF38F00F0E381673
:10263000FE0E38C0E3FFFF0EE350E66EA2EC19F089
:10264000FE0EE350E66EA2EC19F06CEF13F0FC0EF8
:10265000E3CF2DF0020E2D18D8A431EF13F033EF95
:1026600013F03EEF13F0BF0E386EFB0EE35038242C
:10267000376EFD0E37C0E3FF0AEF13F0FC0EE3CF19
:102680002DF0030E2D18D8A448EF13F04AEF13F0E5
:1026900055EF13F0930E386EFB0EE3503824376E6F
:1026A000FD0E37C0E3FF0AEF13F0FC0EE3CF2DF071
:1026B000040E2D18D8A45FEF13F061EF13F06CEF48
:1026C00013F0D30E386EFB0EE3503824376EFD0E38
:1026D00037C0E3FF0AEF13F0FB0EE126FF0EE22204
:1026E00012006E0EE126000EE2228E0EE3CF37F0CE
:1026F0008F0EE3CF38F0930E38C0E3FF920E37C051
:10270000E3FFE150900FD96EE250DA6EFF0EDA224D
:10271000960EE124E96EFF0EE220EA6EDECFEEFFB8
:10272000DDCFEDFF24EE94F0DECF37F0DDCF38F0D3
:10273000010E3726000E3822940EE124D96EFF0ECA
:10274000E220DA6E37C0DEFF38C0DDFFFE0EE12486
:10275000D96EFF0EE220DA6E000EDE6E000EDD6E28
:10276000F90EE124D96EFF0EE220DA6E000EDE6E65
:10277000000EDD6E980EE124D96EFF0EE220DA6EB7
:10278000000EDF6E920EE124D96EFF0EE220DA6EAB
:1027900004EE94F0EECF37F0EDCF38F06E0E370246
:1027A000F3CF35F0F4CF36F03802F3503626000E72
:1027B0003524E96E020E3620EA6E6D0EDBCFEBFF9C
:1027C000E806FCE224EE94F0DE2A000EDD228E0EF6
:1027D000E126FF0EE22212000D0EE126000EE2229B
:1027E000FE0E376EFF0E386EF00EE124356EFF0ED2
:1027F000E220366E3750352638503622FF0E36C06E
:10280000E3FFFE0E35C0E3FFF00EE3CF37F0F10E2D
:10281000E3CF38F0F40E38C0E3FFF30E37C0E3FF28
:10282000F60EE124D96EFF0EE220DA6E000EDE6EA7
:10283000000EDD6EFC0EE124D96EFF0EE220DA6E92
:10284000000EDE6E000EDD6EFE0EE1242D6EFF0E1C
:10285000E2202E6E2DC0E6FF2EC0E6FFEC0EE3CF89
:10286000E6FFE3CFE6FFEF0EE1242D6EFF0EE22040
:102870002E6E2DC0E6FF2EC0E6FF06EC16F0F60E1B
:10288000E124D96EFF0EE220DA6EDECF37F0DDCF25
:1028900038F0F00EE3CF35F0F10EE3CF36F03750DD
:1028A0003524D96E38503620DA6E000EDF6EF30E06
:1028B000E126FF0EE222E552E750E15E000EE25A09
:1028C0001200E652FB0EE3CF2DF0FC0EE3502D106C
:1028D000D8B46DEF14F06FEF14F0CAEF14F0FF0EE0
:1028E000E36AE32A85EF14F0FB0EE350D890E83456
:1028F0002D6EFB0E2DC0E3FFFC0EE350E8342D6E71
:10290000FC0E2DC0E3FFFF0EE32AFC0EE3AE8BEFBF
:1029100014F08DEF14F074EF14F0FB0EE3CF37F0EA
:10292000FC0EE3CF38F0FD0EE3CF35F0FE0EE3CF23
:1029300036F03750355C38503658D8A0A2EF14F036
:10294000A4EF14F0B6EF14F0FD0EE3502D6EFB0E65
:10295000E3502D5EFD0E2DC0E3FFFE0EE3502D6E05
:10296000FC0EE3502D5AFE0E2DC0E3FFD890FC0E56
:10297000E332FB0EE332FF0EE3502D6E010E2D5EAF
:10298000FF0E2DC0E3FFD8A4C8EF14F0CAEF14F077
:102990008DEF14F0FD0EE3CF2DF0FE0EE3CF2EF001
:1029A000FB0EE126FF0EE2221200E652E652FE0E78
:1029B00096C4E3FFFF0E97C4E3FF24EE94F0DECF4E
:1029C00037F0DDCF38F037C0E6FF38C0E6FFFC0E49
:1029D000E350010F376EFD0EE3CF38F0000E3822C2
:1029E00037C0E6FF38C0E6FF61EC14F0FE0E2DC0E4
:1029F000E3FFFF0E2EC0E3FFFE0EE3CF37F0FF0E26
:102A0000E3CF38F06E0E3702F3CF35F0F4CF36F067
:102A10003802F3503626060E3524D96E020E3620C3
:102A2000DA6EDF50D8A417EF15F019EF15F0DDEFCF
:102A300014F0FE0EE3CF2DF0FF0EE3CF2EF0E552A3
:102A4000E5521200F29EFE0EE30407E1FF0EE35092
:102A5000D8A42DEF15F031EF15F0386A382A32EF8F
:102A600015F0386A384683503818FD0B3818836ED5
:102A7000FE0EE3CF2DF0020E2D1807E1FF0EE350FE
:102A8000D8A445EF15F049EF15F0386A382A4AEF17
:102A900015F0386A3846384683503818FB0B38181A
:102AA000836EFE0EE3CF2DF0030E2D1807E1FF0E0F
:102AB000E350D8A45EEF15F062EF15F0386A382ABB
:102AC00063EF15F0386A3846384638468350381870
:102AD000F70B3818836EF28EE552E5521200E6527B
:102AE000E652FE0EE36AFF0EE36A9CEF15F0FE0E5F
:102AF000E3CF37F0FF0EE3CF38F0FC0EE3CF35F035
:102B0000FD0EE3CF36F037503524D96E38503620DD
:102B1000DA6EDF50E66E73EC18F0FE0EE350010F34
:102B20002D6EFE0E2DC0E3FF2D6AFF0EE3502D200B
:102B30002D6EFF0E2DC0E3FFFE0EE3CF37F0FF0E2C
:102B4000E3CF38F0FC0EE3CF35F0FD0EE3CF36F0E7
:102B500037503524D96E38503620DA6EDF50D8A47D
:102B6000B4EF15F0B6EF15F077EF15F0E552E5523A
:102B7000E552E5521200E652E652FA0EE3CF38F083
:102B8000FC0EE3503802FE0EF3CFE3FFFF0EF4CF4E
:102B9000E3FFFB0EE124D96EFF0EE220DA6EDF5078
:102BA000386EFC0EE3503802F3CFF4FFF36AE150C5
:102BB000FE0FD96EE250DA6EFF0EDA22F350DE26F7
:102BC000F450DD22FA0EE3CF38F0FD0EE124D96E89
:102BD000FF0EE220DA6EDF503802F3CFF4FFF36A23
:102BE000E150FE0FD96EE250DA6EFF0EDA22F3509A
:102BF000DE26F450DD22FE0EE3CF2DF0FF0EE3CFF4
:102C00002EF0FA0EE126FF0EE2221200E652E65204
:102C1000FA0EE3CF37F0FB0EE3CF38F0FF0E38C0EB
:102C2000E3FFFE0E37C0E3FF016A026A32EF16F0DF
:102C3000F80EE3CFE6FFE3CFE6FFFC0EE1242D6EB6
:102C4000FF0EE2202E6E2DC0E6FF2EC0E6FFF80E2E
:102C5000E3CFE6FFE3CFE6FFA9EC0DF02D50012610
:102C60002E500222E150FE0FD96EE250DA6EFF0EB6
:102C7000DA22DECFF6FFDDCFF7FF0800F5500009BE
:102C8000D8A445EF16F047EF16F018EF16F001C084
:102C90002DF002C02EF0F80EE126FF0EE222120007
:102CA000E652E652E652FD0EE36AFE0EE36A74EF68
:102CB00016F0F90EE3CFE6FFE3CFE6FFFD0EE3509B
:102CC000E66E000EE66ED3EC11F0FD0EE350010F40
:102CD0002D6EFD0E2DC0E3FF2D6AFE0EE3502D205C
:102CE0002D6EFE0E2DC0E3FFFD0EE3CF37F0FE0E7E
:102CF000E3CF38F0FB0EE3CF35F0FC0EE3CF36F038
:102D000037503524D96E38503620DA6EDF50386EA1
:102D1000FF0E38C0E3FFFF0EE350D8A492EF16F089
:102D200094EF16F059EF16F0F90EE126FF0EE222AD
:102D30001200000EE66E10EC18F0820E2D6EDE0E04
:102D4000E82EFED72D2EFCD7030EE66EA2EC19F06E
:102D5000210E2D6E760EE82EFED72D2EFCD700D03C
:102D6000030EE66EA2EC19F0680E2D6EE40EE82E4E
:102D7000FED72D2EFCD700D0030EE66EA2EC19F084
:102D8000020EE66EA2EC19F0020EE66EA2EC19F04D
:102D9000080EE66EA2EC19F0000EE66EA2EC19F039
:102DA0000C0EE66EA2EC19F0000EE66EA2EC19F025
:102DB000060EE66EA2EC19F01200E652E652F29E02
:102DC000FD0EE3CF38F038463846C2503818C30BF2
:102DD0003818C26EC282C2B2F0EF16F0F2EF16F0EF
:102DE000EBEF16F0C450376E386AFE0E37C0E3FFC3
:102DF000FF0E38C0E3FFE150FE0FD96EE250DA6EED
:102E0000FF0EDA22DE50DD6EDF6AFE0EE350C324D1
:102E10002D6EFE0E2DC0E3FF2D6AFF0EE3502D2216
:102E2000FF0E2DC0E3FFF28EFE0EE3CF2DF0FF0E5E
:102E3000E3CF2EF0E552E552E5521200ECEC19F02A
:102E40002D502E10D8A427EF17F029EF17F048EFD8
:102E500017F0010EE66E000EE66E5FEC19F0010E43
:102E6000E66E000EE66EF1EC18F0A3EC18F0FA0E28
:102E7000E66E000EE66E29EC03F0ECEC19F02D5036
:102E80002E10D8B446EF17F048EF17F035EF17F0D3
:102E9000000EE66E000EE66E5FEC19F0000EE66EB8
:102EA000000EE66EF1EC18F0F40EE66E010EE66E22
:102EB00029EC03F01EEF17F01200E652E652FC0E6A
:102EC000E3CF37F0FD0EE3CF38F0FF0E38C0E3FF5D
:102ED000FE0E37C0E3FF7CEF17F0FC0EE350010F4E
:102EE0002D6EFC0E2DC0E3FF2D6AFD0EE3502D204C
:102EF0002D6EFD0E2DC0E3FFFC0EE3CFD9FFFD0EBE
:102F0000E3CFDAFFDF50D8A488EF17F08AEF17F08D
:102F10006DEF17F0FC0EE3CF2DF0FD0EE3CF2EF09A
:102F2000FE0EE3502D5EFF0EE3502E5AE552E552A1
:102F3000E552E552120078EC19F0C5EC19F06A0E72
:102F4000E66E1D0EE66E030EE66E000EE66E71EC8A
:102F500013F0420EE66E220EE66E030EE66E000ED3
:102F6000E66E71EC13F01A0EE66E160EE66E020EA9
:102F7000E66E000EE66E71EC13F02A0EE66E1F0E82
:102F8000E66E020EE66E000EE66E71EC13F03C0E7D
:102F9000E66E2E0EE66E010EE66E000EE66E71EC2B
:102FA00013F0F8EC19F0D3EF17F006EF00F083B848
:102FB000DCEF17F0DEEF17F0E4EF17F0010E2D6EE7
:102FC000000E2E6E0FEF18F083BAE9EF17F0EBEF5B
:102FD00017F0F1EF17F0020E2D6E000E2E6E0FEFB0
:102FE00018F083BCF6EF17F0F8EF17F0FEEF17F0CC
:102FF000030E2D6E000E2E6E0FEF18F083BE03EF42
:1030000018F005EF18F00BEF18F0040E2D6E000EFF
:103010002E6E0FEF18F0000E2D6E000E2E6E1200A9
:10302000FF0EE3A016EF18F018EF18F01BEF18F0E2
:1030300082801CEF18F08290FF0EE3A222EF18F0BE
:1030400024EF18F027EF18F0828228EF18F0829210
:10305000FF0EE3A42EEF18F030EF18F033EF18F066
:10306000828434EF18F08294FF0EE3A63AEF18F052
:103070003CEF18F03FEF18F0828640EF18F0829690
:10308000E5521200460EF66E340EF76E000EF86E24
:1030900000EE63F020EE06F00900F5CFEEFFDD5004
:1030A000D950FAE102EE00F022EE98F0EE6ADD501F
:1030B000D950FCE1DA50FAE101EE00F021EE00F027
:1030C000EE6ADD50D950FCE1DA50FAE100EE01F091
:1030D0002C0EEE6AE806FDE1000EF86E060EF76EA5
:1030E00000019BEF17F0E652E652FD0EE3CF38F0F9
:1030F0000F0E3816FF0E38C0E3FFFD0EE3CF38F099
:10310000F00E3816FE0E38C0E3FF8288FE0EE3CFC5
:1031100038F038380F0BE66E10EC18F0828A420E49
:10312000E82EFED700D0829AFF0EE350E66E10EC38
:1031300018F0828A420EE82EFED700D0829AE5521D
:10314000E552E5521200F29E81BCA9EF18F0ACEFF7
:1031500018F0010EADEF18F0000EFF0A386E383A85
:103160003846384681503818BF0B3818816E81BEFA
:10317000BCEF18F0BFEF18F0010EC0EF18F0000E12
:10318000FF0A386E38323832815038187F0B3818C1
:10319000816EF28E1200FF0EE3BEDBEF18F0FF0E21
:1031A000E35007E1FE0EE304D8B0D9EF18F0DBEFEF
:1031B00018F0E8EF18F0FE0EE3CF2DF02D1EFF0EF5
:1031C000E3CF2EF02E1E2D2AD8B42E2AEEEF18F0C3
:1031D000FE0EE3CF2DF0FF0EE3CF2EF0E552E552C9
:1031E0001200F29EFE0EE30407E1FF0EE350D8A4A6
:1031F000FCEF18F000EF19F0386A382A01EF19F0E7
:10320000386A383A3846384681503818BF0B381873
:10321000816E818EF28EE552E5521200F29EFE0E14
:10322000E30407E1FF0EE350D8A419EF19F01DEFF6
:1032300019F0386A382A1EEF19F0386A38463846CD
:10324000384681503818F70B3818816EF28EE552E7
:10325000E5521200F29EFE0EE30407E1FF0EE3507A
:10326000D8A435EF19F039EF19F0386A382A3AEF57
:1032700019F0386A383A384681503818DF0B381858
:10328000816EF28EE552E5521200F29EFE0EE304CC
:1032900007E1FF0EE350D8A450EF19F054EF19F0F6
:1032A000386A382A55EF19F0386A383A8150381898
:1032B000EF0B3818816EF28EE552E5521200F29E45
:1032C000FE0EE3040BE1FF0EE350D8B46AEF19F0F1
:1032D0006EEF19F0386A382A6FEF19F0386A8350A8
:1032E0003818FE0B3818836EF28EE552E552120044
:1032F000806AF80E816E826A836A846A030E926E17
:10330000070E936E800E946EF00E956E966AF19E87
:10331000B4EC19F00DEC1AF099EC16F01200E6522C
:10332000E652D5EC14F0FE0E2DC0E3FFFF0E2EC0CA
:10333000E3FFFE0EE3CF2DF0FF0EE3CF2EF0E552BC
:10334000E55212008298FF0EE350E66E10EC18F082
:10335000828A1A0E2D6EF80EE82EFED72D2EFCD77F
:1033600000D0829AE5521200CF0EC116C150F00B68
:103370000D09C16EC08EC050C70B0809C06EC05089
:10338000F80B0209C06EC2801200000EE8CF94F460
:10339000000EE8CF95F4000EE8CF96F4000EE8CFCB
:1033A00097F428EC1AF0120081B2D9EF19F0DCEF93
:1033B00019F0010EDDEF19F0000E2D6E2E6A1200CD
:1033C00081B4E5EF19F0E8EF19F0010EE9EF19F01B
:1033D000000E2D6E2E6A120081B0F1EF19F0F4EF9D
:1033E00019F0010EF5EF19F0000E2D6E2E6A120085
:1033F000000E0C6E050E0B6E03EC1AF0F28ED58EDD
:10340000B4EC19F01200D596D550F80B0209D56E20
:10341000D59AF28AF28CD66A1200240EAC6E900E07
:10342000AB6E810EAF6E1200F29E84928480F28E9B
:103430001200F29E84908492F28E1200F29E84908A
:103440008482F28E1200150001000100E552120084
:02345000120068
:020000040020DA
:08000000FFFFFFFFFFFFFFFF00
:020000040030CA
:0E000000FF021F1EFF8185FF0FC00FE00F40A3
:00000001FF
